{
    "_format": "hh-sol-artifact-1",
    "contractName": "PortfolioManager",
    "sourceName": "contracts/PortforlioManager.sol",
    "abi": [
        {
            "inputs": [],
            "stateMutability": "nonpayable",
            "type": "constructor"
        },
        {
            "inputs": [],
            "name": "educationContract",
            "outputs": [
                {
                    "internalType": "contract Education",
                    "name": "",
                    "type": "address"
                }
            ],
            "stateMutability": "view",
            "type": "function"
        },
        {
            "inputs": [],
            "name": "getContractsAddress",
            "outputs": [
                {
                    "internalType": "address",
                    "name": "education",
                    "type": "address"
                }
            ],
            "stateMutability": "view",
            "type": "function"
        },
        {
            "inputs": [],
            "name": "owner",
            "outputs": [
                {
                    "internalType": "address",
                    "name": "",
                    "type": "address"
                }
            ],
            "stateMutability": "view",
            "type": "function"
        },
        {
            "inputs": [
                {
                    "internalType": "address",
                    "name": "newOwner",
                    "type": "address"
                }
            ],
            "name": "transferOwnership",
            "outputs": [],
            "stateMutability": "nonpayable",
            "type": "function"
        }
    ],
    "bytecode": "0x608060405234801561001057600080fd5b50336000806101000a81548173ffffffffffffffffffffffffffffffffffffffff021916908373ffffffffffffffffffffffffffffffffffffffff16021790555060008054906101000a900473ffffffffffffffffffffffffffffffffffffffff1660405161007e906100ea565b6100889190610138565b604051809103906000f0801580156100a4573d6000803e3d6000fd5b50600160006101000a81548173ffffffffffffffffffffffffffffffffffffffff021916908373ffffffffffffffffffffffffffffffffffffffff160217905550610153565b61183a8061063083390190565b600073ffffffffffffffffffffffffffffffffffffffff82169050919050565b6000610122826100f7565b9050919050565b61013281610117565b82525050565b600060208201905061014d6000830184610129565b92915050565b6104ce806101626000396000f3fe608060405234801561001057600080fd5b506004361061004c5760003560e01c80638da5cb5b14610051578063beb937571461006f578063cd0840bc1461008d578063f2fde38b146100ab575b600080fd5b6100596100c7565b60405161006691906102bc565b60405180910390f35b6100776100eb565b6040516100849190610336565b60405180910390f35b610095610111565b6040516100a291906102bc565b60405180910390f35b6100c560048036038101906100c09190610382565b61013b565b005b60008054906101000a900473ffffffffffffffffffffffffffffffffffffffff1681565b600160009054906101000a900473ffffffffffffffffffffffffffffffffffffffff1681565b6000600160009054906101000a900473ffffffffffffffffffffffffffffffffffffffff16905090565b60008054906101000a900473ffffffffffffffffffffffffffffffffffffffff1673ffffffffffffffffffffffffffffffffffffffff163373ffffffffffffffffffffffffffffffffffffffff16146101c9576040517f08c379a00000000000000000000000000000000000000000000000000000000081526004016101c09061040c565b60405180910390fd5b600073ffffffffffffffffffffffffffffffffffffffff168173ffffffffffffffffffffffffffffffffffffffff1603610238576040517f08c379a000000000000000000000000000000000000000000000000000000000815260040161022f90610478565b60405180910390fd5b806000806101000a81548173ffffffffffffffffffffffffffffffffffffffff021916908373ffffffffffffffffffffffffffffffffffffffff16021790555050565b600073ffffffffffffffffffffffffffffffffffffffff82169050919050565b60006102a68261027b565b9050919050565b6102b68161029b565b82525050565b60006020820190506102d160008301846102ad565b92915050565b6000819050919050565b60006102fc6102f76102f28461027b565b6102d7565b61027b565b9050919050565b600061030e826102e1565b9050919050565b600061032082610303565b9050919050565b61033081610315565b82525050565b600060208201905061034b6000830184610327565b92915050565b600080fd5b61035f8161029b565b811461036a57600080fd5b50565b60008135905061037c81610356565b92915050565b60006020828403121561039857610397610351565b5b60006103a68482850161036d565b91505092915050565b600082825260208201905092915050565b7f596f7520617265206e6f7420746865206f776e65720000000000000000000000600082015250565b60006103f66015836103af565b9150610401826103c0565b602082019050919050565b60006020820190508181036000830152610425816103e9565b9050919050565b7f496e76616c6964206164647265737320666f72206e6577206f776e6572000000600082015250565b6000610462601d836103af565b915061046d8261042c565b602082019050919050565b6000602082019050818103600083015261049181610455565b905091905056fea264697066735822122090dc34771ba615612f87a890d7eab44e511f44b0e64c413ed8f2ea3b26d04bb164736f6c634300081c0033608060405234801561001057600080fd5b5060405161183a38038061183a833981810160405281019061003291906100db565b806000806101000a81548173ffffffffffffffffffffffffffffffffffffffff021916908373ffffffffffffffffffffffffffffffffffffffff16021790555050610108565b600080fd5b600073ffffffffffffffffffffffffffffffffffffffff82169050919050565b60006100a88261007d565b9050919050565b6100b88161009d565b81146100c357600080fd5b50565b6000815190506100d5816100af565b92915050565b6000602082840312156100f1576100f0610078565b5b60006100ff848285016100c6565b91505092915050565b611723806101176000396000f3fe608060405234801561001057600080fd5b50600436106100625760003560e01c806336d11594146100675780633903400d14610083578063481c6a75146100a15780635397c6ec146100bf57806370718674146100dd5780637aea95aa146100f9575b600080fd5b610081600480360381019061007c9190610ca3565b61012d565b005b61008b6103cb565b6040516100989190610dae565b60405180910390f35b6100a96103d1565b6040516100b69190610e0a565b60405180910390f35b6100c76103f5565b6040516100d49190611005565b60405180910390f35b6100f760048036038101906100f29190611027565b610699565b005b610113600480360381019061010e9190611110565b610946565b604051610124959493929190611187565b60405180910390f35b60008054906101000a900473ffffffffffffffffffffffffffffffffffffffff1673ffffffffffffffffffffffffffffffffffffffff163373ffffffffffffffffffffffffffffffffffffffff16146101bb576040517f08c379a00000000000000000000000000000000000000000000000000000000081526004016101b290611242565b60405180910390fd5b600089101580156101cd575060105489105b61020c576040517f08c379a0000000000000000000000000000000000000000000000000000000008152600401610203906112ae565b60405180910390fd5b6040518060a001604052808a815260200189898080601f016020809104026020016040519081016040528093929190818152602001838380828437600081840152601f19601f82011690508083019250505050505050815260200187878080601f016020809104026020016040519081016040528093929190818152602001838380828437600081840152601f19601f82011690508083019250505050505050815260200185858080601f016020809104026020016040519081016040528093929190818152602001838380828437600081840152601f19601f82011690508083019250505050505050815260200183838080601f016020809104026020016040519081016040528093929190818152602001838380828437600081840152601f19601f8201169050808301925050505050505081525060018a60038110610357576103566112ce565b5b6005020160008201518160000155602082015181600101908161037a9190611538565b5060408201518160020190816103909190611538565b5060608201518160030190816103a69190611538565b5060808201518160040190816103bc9190611538565b50905050505050505050505050565b60105481565b60008054906101000a900473ffffffffffffffffffffffffffffffffffffffff1681565b6103fd610ba2565b6001600380602002604051908101604052809291906000905b82821015610690578382600502016040518060a0016040529081600082015481526020016001820180546104499061135b565b80601f01602080910402602001604051908101604052809291908181526020018280546104759061135b565b80156104c25780601f10610497576101008083540402835291602001916104c2565b820191906000526020600020905b8154815290600101906020018083116104a557829003601f168201915b505050505081526020016002820180546104db9061135b565b80601f01602080910402602001604051908101604052809291908181526020018280546105079061135b565b80156105545780601f1061052957610100808354040283529160200191610554565b820191906000526020600020905b81548152906001019060200180831161053757829003601f168201915b5050505050815260200160038201805461056d9061135b565b80601f01602080910402602001604051908101604052809291908181526020018280546105999061135b565b80156105e65780601f106105bb576101008083540402835291602001916105e6565b820191906000526020600020905b8154815290600101906020018083116105c957829003601f168201915b505050505081526020016004820180546105ff9061135b565b80601f016020809104026020016040519081016040528092919081815260200182805461062b9061135b565b80156106785780601f1061064d57610100808354040283529160200191610678565b820191906000526020600020905b81548152906001019060200180831161065b57829003601f168201915b50505050508152505081526020019060010190610416565b50505050905090565b60008054906101000a900473ffffffffffffffffffffffffffffffffffffffff1673ffffffffffffffffffffffffffffffffffffffff163373ffffffffffffffffffffffffffffffffffffffff1614610727576040517f08c379a000000000000000000000000000000000000000000000000000000000815260040161071e90611242565b60405180910390fd5b60036010541061076c576040517f08c379a000000000000000000000000000000000000000000000000000000000815260040161076390611656565b60405180910390fd5b6040518060a00160405280601054815260200189898080601f016020809104026020016040519081016040528093929190818152602001838380828437600081840152601f19601f82011690508083019250505050505050815260200187878080601f016020809104026020016040519081016040528093929190818152602001838380828437600081840152601f19601f82011690508083019250505050505050815260200185858080601f016020809104026020016040519081016040528093929190818152602001838380828437600081840152601f19601f82011690508083019250505050505050815260200183838080601f016020809104026020016040519081016040528093929190818152602001838380828437600081840152601f19601f820116905080830192505050505050508152506001601054600381106108bb576108ba6112ce565b5b600502016000820151816000015560208201518160010190816108de9190611538565b5060408201518160020190816108f49190611538565b50606082015181600301908161090a9190611538565b5060808201518160040190816109209190611538565b5090505060106000815480929190610937906116a5565b91905055505050505050505050565b6001816003811061095657600080fd5b600502016000915090508060000154908060010180546109759061135b565b80601f01602080910402602001604051908101604052809291908181526020018280546109a19061135b565b80156109ee5780601f106109c3576101008083540402835291602001916109ee565b820191906000526020600020905b8154815290600101906020018083116109d157829003601f168201915b505050505090806002018054610a039061135b565b80601f0160208091040260200160405190810160405280929190818152602001828054610a2f9061135b565b8015610a7c5780601f10610a5157610100808354040283529160200191610a7c565b820191906000526020600020905b815481529060010190602001808311610a5f57829003601f168201915b505050505090806003018054610a919061135b565b80601f0160208091040260200160405190810160405280929190818152602001828054610abd9061135b565b8015610b0a5780601f10610adf57610100808354040283529160200191610b0a565b820191906000526020600020905b815481529060010190602001808311610aed57829003601f168201915b505050505090806004018054610b1f9061135b565b80601f0160208091040260200160405190810160405280929190818152602001828054610b4b9061135b565b8015610b985780601f10610b6d57610100808354040283529160200191610b98565b820191906000526020600020905b815481529060010190602001808311610b7b57829003601f168201915b5050505050905085565b60405180606001604052806003905b610bb9610bcf565b815260200190600190039081610bb15790505090565b6040518060a0016040528060008152602001606081526020016060815260200160608152602001606081525090565b600080fd5b600080fd5b6000819050919050565b610c1b81610c08565b8114610c2657600080fd5b50565b600081359050610c3881610c12565b92915050565b600080fd5b600080fd5b600080fd5b60008083601f840112610c6357610c62610c3e565b5b8235905067ffffffffffffffff811115610c8057610c7f610c43565b5b602083019150836001820283011115610c9c57610c9b610c48565b5b9250929050565b600080600080600080600080600060a08a8c031215610cc557610cc4610bfe565b5b6000610cd38c828d01610c29565b99505060208a013567ffffffffffffffff811115610cf457610cf3610c03565b5b610d008c828d01610c4d565b985098505060408a013567ffffffffffffffff811115610d2357610d22610c03565b5b610d2f8c828d01610c4d565b965096505060608a013567ffffffffffffffff811115610d5257610d51610c03565b5b610d5e8c828d01610c4d565b945094505060808a013567ffffffffffffffff811115610d8157610d80610c03565b5b610d8d8c828d01610c4d565b92509250509295985092959850929598565b610da881610c08565b82525050565b6000602082019050610dc36000830184610d9f565b92915050565b600073ffffffffffffffffffffffffffffffffffffffff82169050919050565b6000610df482610dc9565b9050919050565b610e0481610de9565b82525050565b6000602082019050610e1f6000830184610dfb565b92915050565b600060039050919050565b600081905092915050565b6000819050919050565b610e4e81610c08565b82525050565b600081519050919050565b600082825260208201905092915050565b60005b83811015610e8e578082015181840152602081019050610e73565b60008484015250505050565b6000601f19601f8301169050919050565b6000610eb682610e54565b610ec08185610e5f565b9350610ed0818560208601610e70565b610ed981610e9a565b840191505092915050565b600060a083016000830151610efc6000860182610e45565b5060208301518482036020860152610f148282610eab565b91505060408301518482036040860152610f2e8282610eab565b91505060608301518482036060860152610f488282610eab565b91505060808301518482036080860152610f628282610eab565b9150508091505092915050565b6000610f7b8383610ee4565b905092915050565b6000602082019050919050565b6000610f9b82610e25565b610fa58185610e30565b935083602082028501610fb785610e3b565b8060005b85811015610ff35784840389528151610fd48582610f6f565b9450610fdf83610f83565b925060208a01995050600181019050610fbb565b50829750879550505050505092915050565b6000602082019050818103600083015261101f8184610f90565b905092915050565b6000806000806000806000806080898b03121561104757611046610bfe565b5b600089013567ffffffffffffffff81111561106557611064610c03565b5b6110718b828c01610c4d565b9850985050602089013567ffffffffffffffff81111561109457611093610c03565b5b6110a08b828c01610c4d565b9650965050604089013567ffffffffffffffff8111156110c3576110c2610c03565b5b6110cf8b828c01610c4d565b9450945050606089013567ffffffffffffffff8111156110f2576110f1610c03565b5b6110fe8b828c01610c4d565b92509250509295985092959890939650565b60006020828403121561112657611125610bfe565b5b600061113484828501610c29565b91505092915050565b600082825260208201905092915050565b600061115982610e54565b611163818561113d565b9350611173818560208601610e70565b61117c81610e9a565b840191505092915050565b600060a08201905061119c6000830188610d9f565b81810360208301526111ae818761114e565b905081810360408301526111c2818661114e565b905081810360608301526111d6818561114e565b905081810360808301526111ea818461114e565b90509695505050505050565b7f4e6f7420417574686f72697a6564000000000000000000000000000000000000600082015250565b600061122c600e8361113d565b9150611237826111f6565b602082019050919050565b6000602082019050818103600083015261125b8161121f565b9050919050565b7f496e76616c696420656475636174696f6e204944000000000000000000000000600082015250565b600061129860148361113d565b91506112a382611262565b602082019050919050565b600060208201905081810360008301526112c78161128b565b9050919050565b7f4e487b7100000000000000000000000000000000000000000000000000000000600052603260045260246000fd5b7f4e487b7100000000000000000000000000000000000000000000000000000000600052604160045260246000fd5b7f4e487b7100000000000000000000000000000000000000000000000000000000600052602260045260246000fd5b6000600282049050600182168061137357607f821691505b6020821081036113865761138561132c565b5b50919050565b60008190508160005260206000209050919050565b60006020601f8301049050919050565b600082821b905092915050565b6000600883026113ee7fffffffffffffffffffffffffffffffffffffffffffffffffffffffffffffffff826113b1565b6113f886836113b1565b95508019841693508086168417925050509392505050565b6000819050919050565b600061143561143061142b84610c08565b611410565b610c08565b9050919050565b6000819050919050565b61144f8361141a565b61146361145b8261143c565b8484546113be565b825550505050565b600090565b61147861146b565b611483818484611446565b505050565b5b818110156114a75761149c600082611470565b600181019050611489565b5050565b601f8211156114ec576114bd8161138c565b6114c6846113a1565b810160208510156114d5578190505b6114e96114e1856113a1565b830182611488565b50505b505050565b600082821c905092915050565b600061150f600019846008026114f1565b1980831691505092915050565b600061152883836114fe565b9150826002028217905092915050565b61154182610e54565b67ffffffffffffffff81111561155a576115596112fd565b5b611564825461135b565b61156f8282856114ab565b600060209050601f8311600181146115a25760008415611590578287015190505b61159a858261151c565b865550611602565b601f1984166115b08661138c565b60005b828110156115d8578489015182556001820191506020850194506020810190506115b3565b868310156115f557848901516115f1601f8916826114fe565b8355505b6001600288020188555050505b505050505050565b7f4f6e6c79203320456475636174696f6e2044657461696c7320416c6c6f776564600082015250565b600061164060208361113d565b915061164b8261160a565b602082019050919050565b6000602082019050818103600083015261166f81611633565b9050919050565b7f4e487b7100000000000000000000000000000000000000000000000000000000600052601160045260246000fd5b60006116b082610c08565b91507fffffffffffffffffffffffffffffffffffffffffffffffffffffffffffffffff82036116e2576116e1611676565b5b60018201905091905056fea264697066735822122021464e1f878feafce47e5177a96d9da9e25a6b335e46ebd1c9e0e7c55c4ed6e664736f6c634300081c0033",
    "linkReferences": {},
    "deployedLinkReferences": {}
}