{
  "_format": "hh-sol-artifact-1",
  "contractName": "Experience",
  "sourceName": "contracts/Experience.sol",
  "abi": [
    {
      "inputs": [
        {
          "internalType": "address",
          "name": "_manager",
          "type": "address"
        }
      ],
      "stateMutability": "nonpayable",
      "type": "constructor"
    },
    {
      "inputs": [],
      "name": "experienceCount",
      "outputs": [
        {
          "internalType": "uint256",
          "name": "",
          "type": "uint256"
        }
      ],
      "stateMutability": "view",
      "type": "function"
    },
    {
      "inputs": [
        {
          "internalType": "uint256",
          "name": "",
          "type": "uint256"
        }
      ],
      "name": "experiences",
      "outputs": [
        {
          "internalType": "uint256",
          "name": "id",
          "type": "uint256"
        },
        {
          "internalType": "string",
          "name": "date",
          "type": "string"
        },
        {
          "internalType": "string",
          "name": "post",
          "type": "string"
        },
        {
          "internalType": "string",
          "name": "knowledgeAcquired",
          "type": "string"
        },
        {
          "internalType": "string",
          "name": "companyName",
          "type": "string"
        }
      ],
      "stateMutability": "view",
      "type": "function"
    },
    {
      "inputs": [],
      "name": "getExperiences",
      "outputs": [
        {
          "components": [
            {
              "internalType": "uint256",
              "name": "id",
              "type": "uint256"
            },
            {
              "internalType": "string",
              "name": "date",
              "type": "string"
            },
            {
              "internalType": "string",
              "name": "post",
              "type": "string"
            },
            {
              "internalType": "string",
              "name": "knowledgeAcquired",
              "type": "string"
            },
            {
              "internalType": "string",
              "name": "companyName",
              "type": "string"
            }
          ],
          "internalType": "struct Experience.ExperienceStruct[3]",
          "name": "",
          "type": "tuple[3]"
        }
      ],
      "stateMutability": "view",
      "type": "function"
    },
    {
      "inputs": [
        {
          "internalType": "uint256",
          "name": "_id",
          "type": "uint256"
        },
        {
          "internalType": "string",
          "name": "_date",
          "type": "string"
        },
        {
          "internalType": "string",
          "name": "_post",
          "type": "string"
        },
        {
          "internalType": "string",
          "name": "_knowledgeAcquired",
          "type": "string"
        },
        {
          "internalType": "string",
          "name": "_companyName",
          "type": "string"
        }
      ],
      "name": "insertExperience",
      "outputs": [],
      "stateMutability": "nonpayable",
      "type": "function"
    },
    {
      "inputs": [],
      "name": "manager",
      "outputs": [
        {
          "internalType": "address",
          "name": "",
          "type": "address"
        }
      ],
      "stateMutability": "view",
      "type": "function"
    },
    {
      "inputs": [
        {
          "internalType": "uint256",
          "name": "_index",
          "type": "uint256"
        },
        {
          "internalType": "string",
          "name": "_date",
          "type": "string"
        },
        {
          "internalType": "string",
          "name": "_post",
          "type": "string"
        },
        {
          "internalType": "string",
          "name": "_knowledgeAcquired",
          "type": "string"
        },
        {
          "internalType": "string",
          "name": "_companyName",
          "type": "string"
        }
      ],
      "name": "updateExperience",
      "outputs": [],
      "stateMutability": "nonpayable",
      "type": "function"
    }
  ],
  "bytecode": "0x608060405234801561001057600080fd5b5060405161178f38038061178f833981810160405281019061003291906100db565b806000806101000a81548173ffffffffffffffffffffffffffffffffffffffff021916908373ffffffffffffffffffffffffffffffffffffffff16021790555050610108565b600080fd5b600073ffffffffffffffffffffffffffffffffffffffff82169050919050565b60006100a88261007d565b9050919050565b6100b88161009d565b81146100c357600080fd5b50565b6000815190506100d5816100af565b92915050565b6000602082840312156100f1576100f0610078565b5b60006100ff848285016100c6565b91505092915050565b611678806101176000396000f3fe608060405234801561001057600080fd5b50600436106100625760003560e01c8063481c6a75146100675780638594795214610085578063a447a556146100a1578063ab452a3d146100bf578063c4732fa7146100dd578063cf3e7c7c146100f9575b600080fd5b61006f61012d565b60405161007c9190610c31565b60405180910390f35b61009f600480360381019061009a9190610cf1565b610151565b005b6100a96103e2565b6040516100b69190610fcd565b60405180910390f35b6100c7610686565b6040516100d49190610ffe565b60405180910390f35b6100f760048036038101906100f29190610cf1565b61068c565b005b610113600480360381019061010e9190611019565b610938565b604051610124959493929190611090565b60405180910390f35b60008054906101000a900473ffffffffffffffffffffffffffffffffffffffff1681565b3373ffffffffffffffffffffffffffffffffffffffff1660008054906101000a900473ffffffffffffffffffffffffffffffffffffffff1673ffffffffffffffffffffffffffffffffffffffff16146101df576040517f08c379a00000000000000000000000000000000000000000000000000000000081526004016101d690611171565b60405180910390fd5b6001548910610223576040517f08c379a000000000000000000000000000000000000000000000000000000000815260040161021a906111dd565b60405180910390fd5b6040518060a001604052808a815260200189898080601f016020809104026020016040519081016040528093929190818152602001838380828437600081840152601f19601f82011690508083019250505050505050815260200187878080601f016020809104026020016040519081016040528093929190818152602001838380828437600081840152601f19601f82011690508083019250505050505050815260200185858080601f016020809104026020016040519081016040528093929190818152602001838380828437600081840152601f19601f82011690508083019250505050505050815260200183838080601f016020809104026020016040519081016040528093929190818152602001838380828437600081840152601f19601f8201169050808301925050505050505081525060028a6003811061036e5761036d6111fd565b5b600502016000820151816000015560208201518160010190816103919190611467565b5060408201518160020190816103a79190611467565b5060608201518160030190816103bd9190611467565b5060808201518160040190816103d39190611467565b50905050505050505050505050565b6103ea610b94565b6002600380602002604051908101604052809291906000905b8282101561067d578382600502016040518060a0016040529081600082015481526020016001820180546104369061128a565b80601f01602080910402602001604051908101604052809291908181526020018280546104629061128a565b80156104af5780601f10610484576101008083540402835291602001916104af565b820191906000526020600020905b81548152906001019060200180831161049257829003601f168201915b505050505081526020016002820180546104c89061128a565b80601f01602080910402602001604051908101604052809291908181526020018280546104f49061128a565b80156105415780601f1061051657610100808354040283529160200191610541565b820191906000526020600020905b81548152906001019060200180831161052457829003601f168201915b5050505050815260200160038201805461055a9061128a565b80601f01602080910402602001604051908101604052809291908181526020018280546105869061128a565b80156105d35780601f106105a8576101008083540402835291602001916105d3565b820191906000526020600020905b8154815290600101906020018083116105b657829003601f168201915b505050505081526020016004820180546105ec9061128a565b80601f01602080910402602001604051908101604052809291908181526020018280546106189061128a565b80156106655780601f1061063a57610100808354040283529160200191610665565b820191906000526020600020905b81548152906001019060200180831161064857829003601f168201915b50505050508152505081526020019060010190610403565b50505050905090565b60015481565b3373ffffffffffffffffffffffffffffffffffffffff1660008054906101000a900473ffffffffffffffffffffffffffffffffffffffff1673ffffffffffffffffffffffffffffffffffffffff161461071a576040517f08c379a000000000000000000000000000000000000000000000000000000000815260040161071190611171565b60405180910390fd5b60036001541061075f576040517f08c379a0000000000000000000000000000000000000000000000000000000008152600401610756906115ab565b60405180910390fd5b6040518060a001604052808a815260200189898080601f016020809104026020016040519081016040528093929190818152602001838380828437600081840152601f19601f82011690508083019250505050505050815260200187878080601f016020809104026020016040519081016040528093929190818152602001838380828437600081840152601f19601f82011690508083019250505050505050815260200185858080601f016020809104026020016040519081016040528093929190818152602001838380828437600081840152601f19601f82011690508083019250505050505050815260200183838080601f016020809104026020016040519081016040528093929190818152602001838380828437600081840152601f19601f820116905080830192505050505050508152506002600154600381106108ac576108ab6111fd565b5b600502016000820151816000015560208201518160010190816108cf9190611467565b5060408201518160020190816108e59190611467565b5060608201518160030190816108fb9190611467565b5060808201518160040190816109119190611467565b5090505060016000815480929190610928906115fa565b9190505550505050505050505050565b6002816003811061094857600080fd5b600502016000915090508060000154908060010180546109679061128a565b80601f01602080910402602001604051908101604052809291908181526020018280546109939061128a565b80156109e05780601f106109b5576101008083540402835291602001916109e0565b820191906000526020600020905b8154815290600101906020018083116109c357829003601f168201915b5050505050908060020180546109f59061128a565b80601f0160208091040260200160405190810160405280929190818152602001828054610a219061128a565b8015610a6e5780601f10610a4357610100808354040283529160200191610a6e565b820191906000526020600020905b815481529060010190602001808311610a5157829003601f168201915b505050505090806003018054610a839061128a565b80601f0160208091040260200160405190810160405280929190818152602001828054610aaf9061128a565b8015610afc5780601f10610ad157610100808354040283529160200191610afc565b820191906000526020600020905b815481529060010190602001808311610adf57829003601f168201915b505050505090806004018054610b119061128a565b80601f0160208091040260200160405190810160405280929190818152602001828054610b3d9061128a565b8015610b8a5780601f10610b5f57610100808354040283529160200191610b8a565b820191906000526020600020905b815481529060010190602001808311610b6d57829003601f168201915b5050505050905085565b60405180606001604052806003905b610bab610bc1565b815260200190600190039081610ba35790505090565b6040518060a0016040528060008152602001606081526020016060815260200160608152602001606081525090565b600073ffffffffffffffffffffffffffffffffffffffff82169050919050565b6000610c1b82610bf0565b9050919050565b610c2b81610c10565b82525050565b6000602082019050610c466000830184610c22565b92915050565b600080fd5b600080fd5b6000819050919050565b610c6981610c56565b8114610c7457600080fd5b50565b600081359050610c8681610c60565b92915050565b600080fd5b600080fd5b600080fd5b60008083601f840112610cb157610cb0610c8c565b5b8235905067ffffffffffffffff811115610cce57610ccd610c91565b5b602083019150836001820283011115610cea57610ce9610c96565b5b9250929050565b600080600080600080600080600060a08a8c031215610d1357610d12610c4c565b5b6000610d218c828d01610c77565b99505060208a013567ffffffffffffffff811115610d4257610d41610c51565b5b610d4e8c828d01610c9b565b985098505060408a013567ffffffffffffffff811115610d7157610d70610c51565b5b610d7d8c828d01610c9b565b965096505060608a013567ffffffffffffffff811115610da057610d9f610c51565b5b610dac8c828d01610c9b565b945094505060808a013567ffffffffffffffff811115610dcf57610dce610c51565b5b610ddb8c828d01610c9b565b92509250509295985092959850929598565b600060039050919050565b600081905092915050565b6000819050919050565b610e1681610c56565b82525050565b600081519050919050565b600082825260208201905092915050565b60005b83811015610e56578082015181840152602081019050610e3b565b60008484015250505050565b6000601f19601f8301169050919050565b6000610e7e82610e1c565b610e888185610e27565b9350610e98818560208601610e38565b610ea181610e62565b840191505092915050565b600060a083016000830151610ec46000860182610e0d565b5060208301518482036020860152610edc8282610e73565b91505060408301518482036040860152610ef68282610e73565b91505060608301518482036060860152610f108282610e73565b91505060808301518482036080860152610f2a8282610e73565b9150508091505092915050565b6000610f438383610eac565b905092915050565b6000602082019050919050565b6000610f6382610ded565b610f6d8185610df8565b935083602082028501610f7f85610e03565b8060005b85811015610fbb5784840389528151610f9c8582610f37565b9450610fa783610f4b565b925060208a01995050600181019050610f83565b50829750879550505050505092915050565b60006020820190508181036000830152610fe78184610f58565b905092915050565b610ff881610c56565b82525050565b60006020820190506110136000830184610fef565b92915050565b60006020828403121561102f5761102e610c4c565b5b600061103d84828501610c77565b91505092915050565b600082825260208201905092915050565b600061106282610e1c565b61106c8185611046565b935061107c818560208601610e38565b61108581610e62565b840191505092915050565b600060a0820190506110a56000830188610fef565b81810360208301526110b78187611057565b905081810360408301526110cb8186611057565b905081810360608301526110df8185611057565b905081810360808301526110f38184611057565b90509695505050505050565b7f596f7520617265206e6f7420746865204f776e6572206f662074686520506f7260008201527f74666f6c696f0000000000000000000000000000000000000000000000000000602082015250565b600061115b602683611046565b9150611166826110ff565b604082019050919050565b6000602082019050818103600083015261118a8161114e565b9050919050565b7f496e76616c696420657870657269656e636520696e6465780000000000000000600082015250565b60006111c7601883611046565b91506111d282611191565b602082019050919050565b600060208201905081810360008301526111f6816111ba565b9050919050565b7f4e487b7100000000000000000000000000000000000000000000000000000000600052603260045260246000fd5b7f4e487b7100000000000000000000000000000000000000000000000000000000600052604160045260246000fd5b7f4e487b7100000000000000000000000000000000000000000000000000000000600052602260045260246000fd5b600060028204905060018216806112a257607f821691505b6020821081036112b5576112b461125b565b5b50919050565b60008190508160005260206000209050919050565b60006020601f8301049050919050565b600082821b905092915050565b60006008830261131d7fffffffffffffffffffffffffffffffffffffffffffffffffffffffffffffffff826112e0565b61132786836112e0565b95508019841693508086168417925050509392505050565b6000819050919050565b600061136461135f61135a84610c56565b61133f565b610c56565b9050919050565b6000819050919050565b61137e83611349565b61139261138a8261136b565b8484546112ed565b825550505050565b600090565b6113a761139a565b6113b2818484611375565b505050565b5b818110156113d6576113cb60008261139f565b6001810190506113b8565b5050565b601f82111561141b576113ec816112bb565b6113f5846112d0565b81016020851015611404578190505b611418611410856112d0565b8301826113b7565b50505b505050565b600082821c905092915050565b600061143e60001984600802611420565b1980831691505092915050565b6000611457838361142d565b9150826002028217905092915050565b61147082610e1c565b67ffffffffffffffff8111156114895761148861122c565b5b611493825461128a565b61149e8282856113da565b600060209050601f8311600181146114d157600084156114bf578287015190505b6114c9858261144b565b865550611531565b601f1984166114df866112bb565b60005b82811015611507578489015182556001820191506020850194506020810190506114e2565b868310156115245784890151611520601f89168261142d565b8355505b6001600288020188555050505b505050505050565b7f596f752063616e206f6e6c792061646420757020746f2033206578706572696560008201527f6e63657300000000000000000000000000000000000000000000000000000000602082015250565b6000611595602483611046565b91506115a082611539565b604082019050919050565b600060208201905081810360008301526115c481611588565b9050919050565b7f4e487b7100000000000000000000000000000000000000000000000000000000600052601160045260246000fd5b600061160582610c56565b91507fffffffffffffffffffffffffffffffffffffffffffffffffffffffffffffffff8203611637576116366115cb565b5b60018201905091905056fea26469706673582212209d68bde9d5c60696650558852ff3b18f9dbdda274db355c3694ed060f664408964736f6c634300081c0033",
  "linkReferences": {},
  "deployedLinkReferences": {}
}