{
  "_format": "hh-sol-artifact-1",
  "contractName": "PortfolioManager",
  "sourceName": "contracts/PortforlioManager.sol",
  "abi": [
    {
      "inputs": [],
      "stateMutability": "nonpayable",
      "type": "constructor"
    },
    {
      "inputs": [],
      "name": "educationContract",
      "outputs": [
        {
          "internalType": "contract Education",
          "name": "",
          "type": "address"
        }
      ],
      "stateMutability": "view",
      "type": "function"
    },
    {
      "inputs": [],
      "name": "experienceContract",
      "outputs": [
        {
          "internalType": "contract Experience",
          "name": "",
          "type": "address"
        }
      ],
      "stateMutability": "view",
      "type": "function"
    },
    {
      "inputs": [],
      "name": "getContractsAddress",
      "outputs": [
        {
          "internalType": "address",
          "name": "education",
          "type": "address"
        }
      ],
      "stateMutability": "view",
      "type": "function"
    },
    {
      "inputs": [],
      "name": "owner",
      "outputs": [
        {
          "internalType": "address",
          "name": "",
          "type": "address"
        }
      ],
      "stateMutability": "view",
      "type": "function"
    },
    {
      "inputs": [],
      "name": "projectsContract",
      "outputs": [
        {
          "internalType": "contract Projects",
          "name": "",
          "type": "address"
        }
      ],
      "stateMutability": "view",
      "type": "function"
    },
    {
      "inputs": [
        {
          "internalType": "address",
          "name": "newOwner",
          "type": "address"
        }
      ],
      "name": "transferOwnership",
      "outputs": [],
      "stateMutability": "nonpayable",
      "type": "function"
    }
  ],
  "bytecode": "0x608060405234801561001057600080fd5b50336000806101000a81548173ffffffffffffffffffffffffffffffffffffffff021916908373ffffffffffffffffffffffffffffffffffffffff16021790555060008054906101000a900473ffffffffffffffffffffffffffffffffffffffff1660405161007e90610212565b610088919061027a565b604051809103906000f0801580156100a4573d6000803e3d6000fd5b50600160006101000a81548173ffffffffffffffffffffffffffffffffffffffff021916908373ffffffffffffffffffffffffffffffffffffffff16021790555060008054906101000a900473ffffffffffffffffffffffffffffffffffffffff166040516101129061021f565b61011c919061027a565b604051809103906000f080158015610138573d6000803e3d6000fd5b50600260006101000a81548173ffffffffffffffffffffffffffffffffffffffff021916908373ffffffffffffffffffffffffffffffffffffffff16021790555060008054906101000a900473ffffffffffffffffffffffffffffffffffffffff166040516101a69061022c565b6101b0919061027a565b604051809103906000f0801580156101cc573d6000803e3d6000fd5b50600360006101000a81548173ffffffffffffffffffffffffffffffffffffffff021916908373ffffffffffffffffffffffffffffffffffffffff160217905550610295565b61183a8061088883390190565b611a7a806120c283390190565b61178f80613b3c83390190565b600073ffffffffffffffffffffffffffffffffffffffff82169050919050565b600061026482610239565b9050919050565b61027481610259565b82525050565b600060208201905061028f600083018461026b565b92915050565b6105e4806102a46000396000f3fe608060405234801561001057600080fd5b50600436106100625760003560e01c8063454dd14b146100675780634bd335b8146100855780638da5cb5b146100a3578063beb93757146100c1578063cd0840bc146100df578063f2fde38b146100fd575b600080fd5b61006f610119565b60405161007c9190610398565b60405180910390f35b61008d61013f565b60405161009a91906103d4565b60405180910390f35b6100ab610165565b6040516100b89190610410565b60405180910390f35b6100c9610189565b6040516100d6919061044c565b60405180910390f35b6100e76101af565b6040516100f49190610410565b60405180910390f35b61011760048036038101906101129190610498565b6101d9565b005b600360009054906101000a900473ffffffffffffffffffffffffffffffffffffffff1681565b600260009054906101000a900473ffffffffffffffffffffffffffffffffffffffff1681565b60008054906101000a900473ffffffffffffffffffffffffffffffffffffffff1681565b600160009054906101000a900473ffffffffffffffffffffffffffffffffffffffff1681565b6000600160009054906101000a900473ffffffffffffffffffffffffffffffffffffffff16905090565b60008054906101000a900473ffffffffffffffffffffffffffffffffffffffff1673ffffffffffffffffffffffffffffffffffffffff163373ffffffffffffffffffffffffffffffffffffffff1614610267576040517f08c379a000000000000000000000000000000000000000000000000000000000815260040161025e90610522565b60405180910390fd5b600073ffffffffffffffffffffffffffffffffffffffff168173ffffffffffffffffffffffffffffffffffffffff16036102d6576040517f08c379a00000000000000000000000000000000000000000000000000000000081526004016102cd9061058e565b60405180910390fd5b806000806101000a81548173ffffffffffffffffffffffffffffffffffffffff021916908373ffffffffffffffffffffffffffffffffffffffff16021790555050565b600073ffffffffffffffffffffffffffffffffffffffff82169050919050565b6000819050919050565b600061035e61035961035484610319565b610339565b610319565b9050919050565b600061037082610343565b9050919050565b600061038282610365565b9050919050565b61039281610377565b82525050565b60006020820190506103ad6000830184610389565b92915050565b60006103be82610365565b9050919050565b6103ce816103b3565b82525050565b60006020820190506103e960008301846103c5565b92915050565b60006103fa82610319565b9050919050565b61040a816103ef565b82525050565b60006020820190506104256000830184610401565b92915050565b600061043682610365565b9050919050565b6104468161042b565b82525050565b6000602082019050610461600083018461043d565b92915050565b600080fd5b610475816103ef565b811461048057600080fd5b50565b6000813590506104928161046c565b92915050565b6000602082840312156104ae576104ad610467565b5b60006104bc84828501610483565b91505092915050565b600082825260208201905092915050565b7f596f7520617265206e6f7420746865206f776e65720000000000000000000000600082015250565b600061050c6015836104c5565b9150610517826104d6565b602082019050919050565b6000602082019050818103600083015261053b816104ff565b9050919050565b7f496e76616c6964206164647265737320666f72206e6577206f776e6572000000600082015250565b6000610578601d836104c5565b915061058382610542565b602082019050919050565b600060208201905081810360008301526105a78161056b565b905091905056fea2646970667358221220f5f829a18b5fa1c4ee4357d9d05429070392a6b712955e0cb0055828fefc2daf64736f6c634300081c0033608060405234801561001057600080fd5b5060405161183a38038061183a833981810160405281019061003291906100db565b806000806101000a81548173ffffffffffffffffffffffffffffffffffffffff021916908373ffffffffffffffffffffffffffffffffffffffff16021790555050610108565b600080fd5b600073ffffffffffffffffffffffffffffffffffffffff82169050919050565b60006100a88261007d565b9050919050565b6100b88161009d565b81146100c357600080fd5b50565b6000815190506100d5816100af565b92915050565b6000602082840312156100f1576100f0610078565b5b60006100ff848285016100c6565b91505092915050565b611723806101176000396000f3fe608060405234801561001057600080fd5b50600436106100625760003560e01c806336d11594146100675780633903400d14610083578063481c6a75146100a15780635397c6ec146100bf57806370718674146100dd5780637aea95aa146100f9575b600080fd5b610081600480360381019061007c9190610ca3565b61012d565b005b61008b6103cb565b6040516100989190610dae565b60405180910390f35b6100a96103d1565b6040516100b69190610e0a565b60405180910390f35b6100c76103f5565b6040516100d49190611005565b60405180910390f35b6100f760048036038101906100f29190611027565b610699565b005b610113600480360381019061010e9190611110565b610946565b604051610124959493929190611187565b60405180910390f35b60008054906101000a900473ffffffffffffffffffffffffffffffffffffffff1673ffffffffffffffffffffffffffffffffffffffff163373ffffffffffffffffffffffffffffffffffffffff16146101bb576040517f08c379a00000000000000000000000000000000000000000000000000000000081526004016101b290611242565b60405180910390fd5b600089101580156101cd575060105489105b61020c576040517f08c379a0000000000000000000000000000000000000000000000000000000008152600401610203906112ae565b60405180910390fd5b6040518060a001604052808a815260200189898080601f016020809104026020016040519081016040528093929190818152602001838380828437600081840152601f19601f82011690508083019250505050505050815260200187878080601f016020809104026020016040519081016040528093929190818152602001838380828437600081840152601f19601f82011690508083019250505050505050815260200185858080601f016020809104026020016040519081016040528093929190818152602001838380828437600081840152601f19601f82011690508083019250505050505050815260200183838080601f016020809104026020016040519081016040528093929190818152602001838380828437600081840152601f19601f8201169050808301925050505050505081525060018a60038110610357576103566112ce565b5b6005020160008201518160000155602082015181600101908161037a9190611538565b5060408201518160020190816103909190611538565b5060608201518160030190816103a69190611538565b5060808201518160040190816103bc9190611538565b50905050505050505050505050565b60105481565b60008054906101000a900473ffffffffffffffffffffffffffffffffffffffff1681565b6103fd610ba2565b6001600380602002604051908101604052809291906000905b82821015610690578382600502016040518060a0016040529081600082015481526020016001820180546104499061135b565b80601f01602080910402602001604051908101604052809291908181526020018280546104759061135b565b80156104c25780601f10610497576101008083540402835291602001916104c2565b820191906000526020600020905b8154815290600101906020018083116104a557829003601f168201915b505050505081526020016002820180546104db9061135b565b80601f01602080910402602001604051908101604052809291908181526020018280546105079061135b565b80156105545780601f1061052957610100808354040283529160200191610554565b820191906000526020600020905b81548152906001019060200180831161053757829003601f168201915b5050505050815260200160038201805461056d9061135b565b80601f01602080910402602001604051908101604052809291908181526020018280546105999061135b565b80156105e65780601f106105bb576101008083540402835291602001916105e6565b820191906000526020600020905b8154815290600101906020018083116105c957829003601f168201915b505050505081526020016004820180546105ff9061135b565b80601f016020809104026020016040519081016040528092919081815260200182805461062b9061135b565b80156106785780601f1061064d57610100808354040283529160200191610678565b820191906000526020600020905b81548152906001019060200180831161065b57829003601f168201915b50505050508152505081526020019060010190610416565b50505050905090565b60008054906101000a900473ffffffffffffffffffffffffffffffffffffffff1673ffffffffffffffffffffffffffffffffffffffff163373ffffffffffffffffffffffffffffffffffffffff1614610727576040517f08c379a000000000000000000000000000000000000000000000000000000000815260040161071e90611242565b60405180910390fd5b60036010541061076c576040517f08c379a000000000000000000000000000000000000000000000000000000000815260040161076390611656565b60405180910390fd5b6040518060a00160405280601054815260200189898080601f016020809104026020016040519081016040528093929190818152602001838380828437600081840152601f19601f82011690508083019250505050505050815260200187878080601f016020809104026020016040519081016040528093929190818152602001838380828437600081840152601f19601f82011690508083019250505050505050815260200185858080601f016020809104026020016040519081016040528093929190818152602001838380828437600081840152601f19601f82011690508083019250505050505050815260200183838080601f016020809104026020016040519081016040528093929190818152602001838380828437600081840152601f19601f820116905080830192505050505050508152506001601054600381106108bb576108ba6112ce565b5b600502016000820151816000015560208201518160010190816108de9190611538565b5060408201518160020190816108f49190611538565b50606082015181600301908161090a9190611538565b5060808201518160040190816109209190611538565b5090505060106000815480929190610937906116a5565b91905055505050505050505050565b6001816003811061095657600080fd5b600502016000915090508060000154908060010180546109759061135b565b80601f01602080910402602001604051908101604052809291908181526020018280546109a19061135b565b80156109ee5780601f106109c3576101008083540402835291602001916109ee565b820191906000526020600020905b8154815290600101906020018083116109d157829003601f168201915b505050505090806002018054610a039061135b565b80601f0160208091040260200160405190810160405280929190818152602001828054610a2f9061135b565b8015610a7c5780601f10610a5157610100808354040283529160200191610a7c565b820191906000526020600020905b815481529060010190602001808311610a5f57829003601f168201915b505050505090806003018054610a919061135b565b80601f0160208091040260200160405190810160405280929190818152602001828054610abd9061135b565b8015610b0a5780601f10610adf57610100808354040283529160200191610b0a565b820191906000526020600020905b815481529060010190602001808311610aed57829003601f168201915b505050505090806004018054610b1f9061135b565b80601f0160208091040260200160405190810160405280929190818152602001828054610b4b9061135b565b8015610b985780601f10610b6d57610100808354040283529160200191610b98565b820191906000526020600020905b815481529060010190602001808311610b7b57829003601f168201915b5050505050905085565b60405180606001604052806003905b610bb9610bcf565b815260200190600190039081610bb15790505090565b6040518060a0016040528060008152602001606081526020016060815260200160608152602001606081525090565b600080fd5b600080fd5b6000819050919050565b610c1b81610c08565b8114610c2657600080fd5b50565b600081359050610c3881610c12565b92915050565b600080fd5b600080fd5b600080fd5b60008083601f840112610c6357610c62610c3e565b5b8235905067ffffffffffffffff811115610c8057610c7f610c43565b5b602083019150836001820283011115610c9c57610c9b610c48565b5b9250929050565b600080600080600080600080600060a08a8c031215610cc557610cc4610bfe565b5b6000610cd38c828d01610c29565b99505060208a013567ffffffffffffffff811115610cf457610cf3610c03565b5b610d008c828d01610c4d565b985098505060408a013567ffffffffffffffff811115610d2357610d22610c03565b5b610d2f8c828d01610c4d565b965096505060608a013567ffffffffffffffff811115610d5257610d51610c03565b5b610d5e8c828d01610c4d565b945094505060808a013567ffffffffffffffff811115610d8157610d80610c03565b5b610d8d8c828d01610c4d565b92509250509295985092959850929598565b610da881610c08565b82525050565b6000602082019050610dc36000830184610d9f565b92915050565b600073ffffffffffffffffffffffffffffffffffffffff82169050919050565b6000610df482610dc9565b9050919050565b610e0481610de9565b82525050565b6000602082019050610e1f6000830184610dfb565b92915050565b600060039050919050565b600081905092915050565b6000819050919050565b610e4e81610c08565b82525050565b600081519050919050565b600082825260208201905092915050565b60005b83811015610e8e578082015181840152602081019050610e73565b60008484015250505050565b6000601f19601f8301169050919050565b6000610eb682610e54565b610ec08185610e5f565b9350610ed0818560208601610e70565b610ed981610e9a565b840191505092915050565b600060a083016000830151610efc6000860182610e45565b5060208301518482036020860152610f148282610eab565b91505060408301518482036040860152610f2e8282610eab565b91505060608301518482036060860152610f488282610eab565b91505060808301518482036080860152610f628282610eab565b9150508091505092915050565b6000610f7b8383610ee4565b905092915050565b6000602082019050919050565b6000610f9b82610e25565b610fa58185610e30565b935083602082028501610fb785610e3b565b8060005b85811015610ff35784840389528151610fd48582610f6f565b9450610fdf83610f83565b925060208a01995050600181019050610fbb565b50829750879550505050505092915050565b6000602082019050818103600083015261101f8184610f90565b905092915050565b6000806000806000806000806080898b03121561104757611046610bfe565b5b600089013567ffffffffffffffff81111561106557611064610c03565b5b6110718b828c01610c4d565b9850985050602089013567ffffffffffffffff81111561109457611093610c03565b5b6110a08b828c01610c4d565b9650965050604089013567ffffffffffffffff8111156110c3576110c2610c03565b5b6110cf8b828c01610c4d565b9450945050606089013567ffffffffffffffff8111156110f2576110f1610c03565b5b6110fe8b828c01610c4d565b92509250509295985092959890939650565b60006020828403121561112657611125610bfe565b5b600061113484828501610c29565b91505092915050565b600082825260208201905092915050565b600061115982610e54565b611163818561113d565b9350611173818560208601610e70565b61117c81610e9a565b840191505092915050565b600060a08201905061119c6000830188610d9f565b81810360208301526111ae818761114e565b905081810360408301526111c2818661114e565b905081810360608301526111d6818561114e565b905081810360808301526111ea818461114e565b90509695505050505050565b7f4e6f7420417574686f72697a6564000000000000000000000000000000000000600082015250565b600061122c600e8361113d565b9150611237826111f6565b602082019050919050565b6000602082019050818103600083015261125b8161121f565b9050919050565b7f496e76616c696420656475636174696f6e204944000000000000000000000000600082015250565b600061129860148361113d565b91506112a382611262565b602082019050919050565b600060208201905081810360008301526112c78161128b565b9050919050565b7f4e487b7100000000000000000000000000000000000000000000000000000000600052603260045260246000fd5b7f4e487b7100000000000000000000000000000000000000000000000000000000600052604160045260246000fd5b7f4e487b7100000000000000000000000000000000000000000000000000000000600052602260045260246000fd5b6000600282049050600182168061137357607f821691505b6020821081036113865761138561132c565b5b50919050565b60008190508160005260206000209050919050565b60006020601f8301049050919050565b600082821b905092915050565b6000600883026113ee7fffffffffffffffffffffffffffffffffffffffffffffffffffffffffffffffff826113b1565b6113f886836113b1565b95508019841693508086168417925050509392505050565b6000819050919050565b600061143561143061142b84610c08565b611410565b610c08565b9050919050565b6000819050919050565b61144f8361141a565b61146361145b8261143c565b8484546113be565b825550505050565b600090565b61147861146b565b611483818484611446565b505050565b5b818110156114a75761149c600082611470565b600181019050611489565b5050565b601f8211156114ec576114bd8161138c565b6114c6846113a1565b810160208510156114d5578190505b6114e96114e1856113a1565b830182611488565b50505b505050565b600082821c905092915050565b600061150f600019846008026114f1565b1980831691505092915050565b600061152883836114fe565b9150826002028217905092915050565b61154182610e54565b67ffffffffffffffff81111561155a576115596112fd565b5b611564825461135b565b61156f8282856114ab565b600060209050601f8311600181146115a25760008415611590578287015190505b61159a858261151c565b865550611602565b601f1984166115b08661138c565b60005b828110156115d8578489015182556001820191506020850194506020810190506115b3565b868310156115f557848901516115f1601f8916826114fe565b8355505b6001600288020188555050505b505050505050565b7f4f6e6c79203320456475636174696f6e2044657461696c7320416c6c6f776564600082015250565b600061164060208361113d565b915061164b8261160a565b602082019050919050565b6000602082019050818103600083015261166f81611633565b9050919050565b7f4e487b7100000000000000000000000000000000000000000000000000000000600052601160045260246000fd5b60006116b082610c08565b91507fffffffffffffffffffffffffffffffffffffffffffffffffffffffffffffffff82036116e2576116e1611676565b5b60018201905091905056fea264697066735822122021464e1f878feafce47e5177a96d9da9e25a6b335e46ebd1c9e0e7c55c4ed6e664736f6c634300081c0033608060405234801561001057600080fd5b50604051611a7a380380611a7a833981810160405281019061003291906100db565b806000806101000a81548173ffffffffffffffffffffffffffffffffffffffff021916908373ffffffffffffffffffffffffffffffffffffffff16021790555050610108565b600080fd5b600073ffffffffffffffffffffffffffffffffffffffff82169050919050565b60006100a88261007d565b9050919050565b6100b88161009d565b81146100c357600080fd5b50565b6000815190506100d5816100af565b92915050565b6000602082840312156100f1576100f0610078565b5b60006100ff848285016100c6565b91505092915050565b611963806101176000396000f3fe608060405234801561001057600080fd5b50600436106100625760003560e01c806336fbad2614610067578063481c6a75146100855780634f71a01d146100a35780638dd91a56146100bf578063ac0bae2a146100f3578063d107ba541461010f575b600080fd5b61006f61012d565b60405161007c9190610dc9565b60405180910390f35b61008d610133565b60405161009a9190610e25565b60405180910390f35b6100bd60048036038101906100b89190610eaf565b610157565b005b6100d960048036038101906100d49190610ff8565b610454565b6040516100ea9594939291906110b5565b60405180910390f35b61010d6004803603810190610108919061112b565b610738565b005b610117610a28565b60405161012491906113ee565b60405180910390f35b60015481565b60008054906101000a900473ffffffffffffffffffffffffffffffffffffffff1681565b60008054906101000a900473ffffffffffffffffffffffffffffffffffffffff1673ffffffffffffffffffffffffffffffffffffffff163373ffffffffffffffffffffffffffffffffffffffff16146101e5576040517f08c379a00000000000000000000000000000000000000000000000000000000081526004016101dc90611482565b60405180910390fd5b60036001541061022a576040517f08c379a0000000000000000000000000000000000000000000000000000000008152600401610221906114ee565b60405180910390fd5b6040518060a001604052808b8b8080601f016020809104026020016040519081016040528093929190818152602001838380828437600081840152601f19601f82011690508083019250505050505050815260200189898080601f016020809104026020016040519081016040528093929190818152602001838380828437600081840152601f19601f82011690508083019250505050505050815260200187878080601f016020809104026020016040519081016040528093929190818152602001838380828437600081840152601f19601f82011690508083019250505050505050815260200185858080601f016020809104026020016040519081016040528093929190818152602001838380828437600081840152601f19601f82011690508083019250505050505050815260200183838080601f016020809104026020016040519081016040528093929190818152602001838380828437600081840152601f19601f820116905080830192505050505050508152506002600154600381106103bb576103ba61150e565b5b6005020160008201518160000190816103d49190611778565b5060208201518160010190816103ea9190611778565b5060408201518160020190816104009190611778565b5060608201518160030190816104169190611778565b50608082015181600401908161042c9190611778565b509050506001600081548092919061044390611879565b919050555050505050505050505050565b6002816003811061046457600080fd5b6005020160009150905080600001805461047d9061159b565b80601f01602080910402602001604051908101604052809291908181526020018280546104a99061159b565b80156104f65780601f106104cb576101008083540402835291602001916104f6565b820191906000526020600020905b8154815290600101906020018083116104d957829003601f168201915b50505050509080600101805461050b9061159b565b80601f01602080910402602001604051908101604052809291908181526020018280546105379061159b565b80156105845780601f1061055957610100808354040283529160200191610584565b820191906000526020600020905b81548152906001019060200180831161056757829003601f168201915b5050505050908060020180546105999061159b565b80601f01602080910402602001604051908101604052809291908181526020018280546105c59061159b565b80156106125780601f106105e757610100808354040283529160200191610612565b820191906000526020600020905b8154815290600101906020018083116105f557829003601f168201915b5050505050908060030180546106279061159b565b80601f01602080910402602001604051908101604052809291908181526020018280546106539061159b565b80156106a05780601f10610675576101008083540402835291602001916106a0565b820191906000526020600020905b81548152906001019060200180831161068357829003601f168201915b5050505050908060040180546106b59061159b565b80601f01602080910402602001604051908101604052809291908181526020018280546106e19061159b565b801561072e5780601f106107035761010080835404028352916020019161072e565b820191906000526020600020905b81548152906001019060200180831161071157829003601f168201915b5050505050905085565b60008054906101000a900473ffffffffffffffffffffffffffffffffffffffff1673ffffffffffffffffffffffffffffffffffffffff163373ffffffffffffffffffffffffffffffffffffffff16146107c6576040517f08c379a00000000000000000000000000000000000000000000000000000000081526004016107bd90611482565b60405180910390fd5b60008b101580156107d857506001548b105b610817576040517f08c379a000000000000000000000000000000000000000000000000000000000815260040161080e9061190d565b60405180910390fd5b6040518060a001604052808b8b8080601f016020809104026020016040519081016040528093929190818152602001838380828437600081840152601f19601f82011690508083019250505050505050815260200189898080601f016020809104026020016040519081016040528093929190818152602001838380828437600081840152601f19601f82011690508083019250505050505050815260200187878080601f016020809104026020016040519081016040528093929190818152602001838380828437600081840152601f19601f82011690508083019250505050505050815260200185858080601f016020809104026020016040519081016040528093929190818152602001838380828437600081840152601f19601f82011690508083019250505050505050815260200183838080601f016020809104026020016040519081016040528093929190818152602001838380828437600081840152601f19601f8201169050808301925050505050505081525060028c600381106109a6576109a561150e565b5b6005020160008201518160000190816109bf9190611778565b5060208201518160010190816109d59190611778565b5060408201518160020190816109eb9190611778565b506060820151816003019081610a019190611778565b506080820151816004019081610a179190611778565b509050505050505050505050505050565b610a30610d54565b6002600380602002604051908101604052809291906000905b82821015610d4b578382600502016040518060a0016040529081600082018054610a729061159b565b80601f0160208091040260200160405190810160405280929190818152602001828054610a9e9061159b565b8015610aeb5780601f10610ac057610100808354040283529160200191610aeb565b820191906000526020600020905b815481529060010190602001808311610ace57829003601f168201915b50505050508152602001600182018054610b049061159b565b80601f0160208091040260200160405190810160405280929190818152602001828054610b309061159b565b8015610b7d5780601f10610b5257610100808354040283529160200191610b7d565b820191906000526020600020905b815481529060010190602001808311610b6057829003601f168201915b50505050508152602001600282018054610b969061159b565b80601f0160208091040260200160405190810160405280929190818152602001828054610bc29061159b565b8015610c0f5780601f10610be457610100808354040283529160200191610c0f565b820191906000526020600020905b815481529060010190602001808311610bf257829003601f168201915b50505050508152602001600382018054610c289061159b565b80601f0160208091040260200160405190810160405280929190818152602001828054610c549061159b565b8015610ca15780601f10610c7657610100808354040283529160200191610ca1565b820191906000526020600020905b815481529060010190602001808311610c8457829003601f168201915b50505050508152602001600482018054610cba9061159b565b80601f0160208091040260200160405190810160405280929190818152602001828054610ce69061159b565b8015610d335780601f10610d0857610100808354040283529160200191610d33565b820191906000526020600020905b815481529060010190602001808311610d1657829003601f168201915b50505050508152505081526020019060010190610a49565b50505050905090565b60405180606001604052806003905b610d6b610d81565b815260200190600190039081610d635790505090565b6040518060a0016040528060608152602001606081526020016060815260200160608152602001606081525090565b6000819050919050565b610dc381610db0565b82525050565b6000602082019050610dde6000830184610dba565b92915050565b600073ffffffffffffffffffffffffffffffffffffffff82169050919050565b6000610e0f82610de4565b9050919050565b610e1f81610e04565b82525050565b6000602082019050610e3a6000830184610e16565b92915050565b600080fd5b600080fd5b600080fd5b600080fd5b600080fd5b60008083601f840112610e6f57610e6e610e4a565b5b8235905067ffffffffffffffff811115610e8c57610e8b610e4f565b5b602083019150836001820283011115610ea857610ea7610e54565b5b9250929050565b60008060008060008060008060008060a08b8d031215610ed257610ed1610e40565b5b60008b013567ffffffffffffffff811115610ef057610eef610e45565b5b610efc8d828e01610e59565b9a509a505060208b013567ffffffffffffffff811115610f1f57610f1e610e45565b5b610f2b8d828e01610e59565b985098505060408b013567ffffffffffffffff811115610f4e57610f4d610e45565b5b610f5a8d828e01610e59565b965096505060608b013567ffffffffffffffff811115610f7d57610f7c610e45565b5b610f898d828e01610e59565b945094505060808b013567ffffffffffffffff811115610fac57610fab610e45565b5b610fb88d828e01610e59565b92509250509295989b9194979a5092959850565b610fd581610db0565b8114610fe057600080fd5b50565b600081359050610ff281610fcc565b92915050565b60006020828403121561100e5761100d610e40565b5b600061101c84828501610fe3565b91505092915050565b600081519050919050565b600082825260208201905092915050565b60005b8381101561105f578082015181840152602081019050611044565b60008484015250505050565b6000601f19601f8301169050919050565b600061108782611025565b6110918185611030565b93506110a1818560208601611041565b6110aa8161106b565b840191505092915050565b600060a08201905081810360008301526110cf818861107c565b905081810360208301526110e3818761107c565b905081810360408301526110f7818661107c565b9050818103606083015261110b818561107c565b9050818103608083015261111f818461107c565b90509695505050505050565b600080600080600080600080600080600060c08c8e0312156111505761114f610e40565b5b600061115e8e828f01610fe3565b9b505060208c013567ffffffffffffffff81111561117f5761117e610e45565b5b61118b8e828f01610e59565b9a509a505060408c013567ffffffffffffffff8111156111ae576111ad610e45565b5b6111ba8e828f01610e59565b985098505060608c013567ffffffffffffffff8111156111dd576111dc610e45565b5b6111e98e828f01610e59565b965096505060808c013567ffffffffffffffff81111561120c5761120b610e45565b5b6112188e828f01610e59565b945094505060a08c013567ffffffffffffffff81111561123b5761123a610e45565b5b6112478e828f01610e59565b92509250509295989b509295989b9093969950565b600060039050919050565b600081905092915050565b6000819050919050565b600082825260208201905092915050565b600061129882611025565b6112a2818561127c565b93506112b2818560208601611041565b6112bb8161106b565b840191505092915050565b600060a08301600083015184820360008601526112e3828261128d565b915050602083015184820360208601526112fd828261128d565b91505060408301518482036040860152611317828261128d565b91505060608301518482036060860152611331828261128d565b9150506080830151848203608086015261134b828261128d565b9150508091505092915050565b600061136483836112c6565b905092915050565b6000602082019050919050565b60006113848261125c565b61138e8185611267565b9350836020820285016113a085611272565b8060005b858110156113dc57848403895281516113bd8582611358565b94506113c88361136c565b925060208a019950506001810190506113a4565b50829750879550505050505092915050565b600060208201905081810360008301526114088184611379565b905092915050565b7f596f7520617265206e6f7420746865206f776e6572206f66207468697320706f60008201527f7274666f6c696f00000000000000000000000000000000000000000000000000602082015250565b600061146c602783611030565b915061147782611410565b604082019050919050565b6000602082019050818103600083015261149b8161145f565b9050919050565b7f596f752063616e206f6e6c792061646420332070726f6a656374730000000000600082015250565b60006114d8601b83611030565b91506114e3826114a2565b602082019050919050565b60006020820190508181036000830152611507816114cb565b9050919050565b7f4e487b7100000000000000000000000000000000000000000000000000000000600052603260045260246000fd5b7f4e487b7100000000000000000000000000000000000000000000000000000000600052604160045260246000fd5b7f4e487b7100000000000000000000000000000000000000000000000000000000600052602260045260246000fd5b600060028204905060018216806115b357607f821691505b6020821081036115c6576115c561156c565b5b50919050565b60008190508160005260206000209050919050565b60006020601f8301049050919050565b600082821b905092915050565b60006008830261162e7fffffffffffffffffffffffffffffffffffffffffffffffffffffffffffffffff826115f1565b61163886836115f1565b95508019841693508086168417925050509392505050565b6000819050919050565b600061167561167061166b84610db0565b611650565b610db0565b9050919050565b6000819050919050565b61168f8361165a565b6116a361169b8261167c565b8484546115fe565b825550505050565b600090565b6116b86116ab565b6116c3818484611686565b505050565b5b818110156116e7576116dc6000826116b0565b6001810190506116c9565b5050565b601f82111561172c576116fd816115cc565b611706846115e1565b81016020851015611715578190505b611729611721856115e1565b8301826116c8565b50505b505050565b600082821c905092915050565b600061174f60001984600802611731565b1980831691505092915050565b6000611768838361173e565b9150826002028217905092915050565b61178182611025565b67ffffffffffffffff81111561179a5761179961153d565b5b6117a4825461159b565b6117af8282856116eb565b600060209050601f8311600181146117e257600084156117d0578287015190505b6117da858261175c565b865550611842565b601f1984166117f0866115cc565b60005b82811015611818578489015182556001820191506020850194506020810190506117f3565b868310156118355784890151611831601f89168261173e565b8355505b6001600288020188555050505b505050505050565b7f4e487b7100000000000000000000000000000000000000000000000000000000600052601160045260246000fd5b600061188482610db0565b91507fffffffffffffffffffffffffffffffffffffffffffffffffffffffffffffffff82036118b6576118b561184a565b5b600182019050919050565b7f496e76616c69642070726f6a6563742049440000000000000000000000000000600082015250565b60006118f7601283611030565b9150611902826118c1565b602082019050919050565b60006020820190508181036000830152611926816118ea565b905091905056fea2646970667358221220b9ba0f49e21de54ed9ddd8701f798874d1d3f80187e1a312c38fc2fea3d429a064736f6c634300081c0033608060405234801561001057600080fd5b5060405161178f38038061178f833981810160405281019061003291906100db565b806000806101000a81548173ffffffffffffffffffffffffffffffffffffffff021916908373ffffffffffffffffffffffffffffffffffffffff16021790555050610108565b600080fd5b600073ffffffffffffffffffffffffffffffffffffffff82169050919050565b60006100a88261007d565b9050919050565b6100b88161009d565b81146100c357600080fd5b50565b6000815190506100d5816100af565b92915050565b6000602082840312156100f1576100f0610078565b5b60006100ff848285016100c6565b91505092915050565b611678806101176000396000f3fe608060405234801561001057600080fd5b50600436106100625760003560e01c8063481c6a75146100675780638594795214610085578063a447a556146100a1578063ab452a3d146100bf578063c4732fa7146100dd578063cf3e7c7c146100f9575b600080fd5b61006f61012d565b60405161007c9190610c31565b60405180910390f35b61009f600480360381019061009a9190610cf1565b610151565b005b6100a96103e2565b6040516100b69190610fcd565b60405180910390f35b6100c7610686565b6040516100d49190610ffe565b60405180910390f35b6100f760048036038101906100f29190610cf1565b61068c565b005b610113600480360381019061010e9190611019565b610938565b604051610124959493929190611090565b60405180910390f35b60008054906101000a900473ffffffffffffffffffffffffffffffffffffffff1681565b3373ffffffffffffffffffffffffffffffffffffffff1660008054906101000a900473ffffffffffffffffffffffffffffffffffffffff1673ffffffffffffffffffffffffffffffffffffffff16146101df576040517f08c379a00000000000000000000000000000000000000000000000000000000081526004016101d690611171565b60405180910390fd5b6001548910610223576040517f08c379a000000000000000000000000000000000000000000000000000000000815260040161021a906111dd565b60405180910390fd5b6040518060a001604052808a815260200189898080601f016020809104026020016040519081016040528093929190818152602001838380828437600081840152601f19601f82011690508083019250505050505050815260200187878080601f016020809104026020016040519081016040528093929190818152602001838380828437600081840152601f19601f82011690508083019250505050505050815260200185858080601f016020809104026020016040519081016040528093929190818152602001838380828437600081840152601f19601f82011690508083019250505050505050815260200183838080601f016020809104026020016040519081016040528093929190818152602001838380828437600081840152601f19601f8201169050808301925050505050505081525060028a6003811061036e5761036d6111fd565b5b600502016000820151816000015560208201518160010190816103919190611467565b5060408201518160020190816103a79190611467565b5060608201518160030190816103bd9190611467565b5060808201518160040190816103d39190611467565b50905050505050505050505050565b6103ea610b94565b6002600380602002604051908101604052809291906000905b8282101561067d578382600502016040518060a0016040529081600082015481526020016001820180546104369061128a565b80601f01602080910402602001604051908101604052809291908181526020018280546104629061128a565b80156104af5780601f10610484576101008083540402835291602001916104af565b820191906000526020600020905b81548152906001019060200180831161049257829003601f168201915b505050505081526020016002820180546104c89061128a565b80601f01602080910402602001604051908101604052809291908181526020018280546104f49061128a565b80156105415780601f1061051657610100808354040283529160200191610541565b820191906000526020600020905b81548152906001019060200180831161052457829003601f168201915b5050505050815260200160038201805461055a9061128a565b80601f01602080910402602001604051908101604052809291908181526020018280546105869061128a565b80156105d35780601f106105a8576101008083540402835291602001916105d3565b820191906000526020600020905b8154815290600101906020018083116105b657829003601f168201915b505050505081526020016004820180546105ec9061128a565b80601f01602080910402602001604051908101604052809291908181526020018280546106189061128a565b80156106655780601f1061063a57610100808354040283529160200191610665565b820191906000526020600020905b81548152906001019060200180831161064857829003601f168201915b50505050508152505081526020019060010190610403565b50505050905090565b60015481565b3373ffffffffffffffffffffffffffffffffffffffff1660008054906101000a900473ffffffffffffffffffffffffffffffffffffffff1673ffffffffffffffffffffffffffffffffffffffff161461071a576040517f08c379a000000000000000000000000000000000000000000000000000000000815260040161071190611171565b60405180910390fd5b60036001541061075f576040517f08c379a0000000000000000000000000000000000000000000000000000000008152600401610756906115ab565b60405180910390fd5b6040518060a001604052808a815260200189898080601f016020809104026020016040519081016040528093929190818152602001838380828437600081840152601f19601f82011690508083019250505050505050815260200187878080601f016020809104026020016040519081016040528093929190818152602001838380828437600081840152601f19601f82011690508083019250505050505050815260200185858080601f016020809104026020016040519081016040528093929190818152602001838380828437600081840152601f19601f82011690508083019250505050505050815260200183838080601f016020809104026020016040519081016040528093929190818152602001838380828437600081840152601f19601f820116905080830192505050505050508152506002600154600381106108ac576108ab6111fd565b5b600502016000820151816000015560208201518160010190816108cf9190611467565b5060408201518160020190816108e59190611467565b5060608201518160030190816108fb9190611467565b5060808201518160040190816109119190611467565b5090505060016000815480929190610928906115fa565b9190505550505050505050505050565b6002816003811061094857600080fd5b600502016000915090508060000154908060010180546109679061128a565b80601f01602080910402602001604051908101604052809291908181526020018280546109939061128a565b80156109e05780601f106109b5576101008083540402835291602001916109e0565b820191906000526020600020905b8154815290600101906020018083116109c357829003601f168201915b5050505050908060020180546109f59061128a565b80601f0160208091040260200160405190810160405280929190818152602001828054610a219061128a565b8015610a6e5780601f10610a4357610100808354040283529160200191610a6e565b820191906000526020600020905b815481529060010190602001808311610a5157829003601f168201915b505050505090806003018054610a839061128a565b80601f0160208091040260200160405190810160405280929190818152602001828054610aaf9061128a565b8015610afc5780601f10610ad157610100808354040283529160200191610afc565b820191906000526020600020905b815481529060010190602001808311610adf57829003601f168201915b505050505090806004018054610b119061128a565b80601f0160208091040260200160405190810160405280929190818152602001828054610b3d9061128a565b8015610b8a5780601f10610b5f57610100808354040283529160200191610b8a565b820191906000526020600020905b815481529060010190602001808311610b6d57829003601f168201915b5050505050905085565b60405180606001604052806003905b610bab610bc1565b815260200190600190039081610ba35790505090565b6040518060a0016040528060008152602001606081526020016060815260200160608152602001606081525090565b600073ffffffffffffffffffffffffffffffffffffffff82169050919050565b6000610c1b82610bf0565b9050919050565b610c2b81610c10565b82525050565b6000602082019050610c466000830184610c22565b92915050565b600080fd5b600080fd5b6000819050919050565b610c6981610c56565b8114610c7457600080fd5b50565b600081359050610c8681610c60565b92915050565b600080fd5b600080fd5b600080fd5b60008083601f840112610cb157610cb0610c8c565b5b8235905067ffffffffffffffff811115610cce57610ccd610c91565b5b602083019150836001820283011115610cea57610ce9610c96565b5b9250929050565b600080600080600080600080600060a08a8c031215610d1357610d12610c4c565b5b6000610d218c828d01610c77565b99505060208a013567ffffffffffffffff811115610d4257610d41610c51565b5b610d4e8c828d01610c9b565b985098505060408a013567ffffffffffffffff811115610d7157610d70610c51565b5b610d7d8c828d01610c9b565b965096505060608a013567ffffffffffffffff811115610da057610d9f610c51565b5b610dac8c828d01610c9b565b945094505060808a013567ffffffffffffffff811115610dcf57610dce610c51565b5b610ddb8c828d01610c9b565b92509250509295985092959850929598565b600060039050919050565b600081905092915050565b6000819050919050565b610e1681610c56565b82525050565b600081519050919050565b600082825260208201905092915050565b60005b83811015610e56578082015181840152602081019050610e3b565b60008484015250505050565b6000601f19601f8301169050919050565b6000610e7e82610e1c565b610e888185610e27565b9350610e98818560208601610e38565b610ea181610e62565b840191505092915050565b600060a083016000830151610ec46000860182610e0d565b5060208301518482036020860152610edc8282610e73565b91505060408301518482036040860152610ef68282610e73565b91505060608301518482036060860152610f108282610e73565b91505060808301518482036080860152610f2a8282610e73565b9150508091505092915050565b6000610f438383610eac565b905092915050565b6000602082019050919050565b6000610f6382610ded565b610f6d8185610df8565b935083602082028501610f7f85610e03565b8060005b85811015610fbb5784840389528151610f9c8582610f37565b9450610fa783610f4b565b925060208a01995050600181019050610f83565b50829750879550505050505092915050565b60006020820190508181036000830152610fe78184610f58565b905092915050565b610ff881610c56565b82525050565b60006020820190506110136000830184610fef565b92915050565b60006020828403121561102f5761102e610c4c565b5b600061103d84828501610c77565b91505092915050565b600082825260208201905092915050565b600061106282610e1c565b61106c8185611046565b935061107c818560208601610e38565b61108581610e62565b840191505092915050565b600060a0820190506110a56000830188610fef565b81810360208301526110b78187611057565b905081810360408301526110cb8186611057565b905081810360608301526110df8185611057565b905081810360808301526110f38184611057565b90509695505050505050565b7f596f7520617265206e6f7420746865204f776e6572206f662074686520506f7260008201527f74666f6c696f0000000000000000000000000000000000000000000000000000602082015250565b600061115b602683611046565b9150611166826110ff565b604082019050919050565b6000602082019050818103600083015261118a8161114e565b9050919050565b7f496e76616c696420657870657269656e636520696e6465780000000000000000600082015250565b60006111c7601883611046565b91506111d282611191565b602082019050919050565b600060208201905081810360008301526111f6816111ba565b9050919050565b7f4e487b7100000000000000000000000000000000000000000000000000000000600052603260045260246000fd5b7f4e487b7100000000000000000000000000000000000000000000000000000000600052604160045260246000fd5b7f4e487b7100000000000000000000000000000000000000000000000000000000600052602260045260246000fd5b600060028204905060018216806112a257607f821691505b6020821081036112b5576112b461125b565b5b50919050565b60008190508160005260206000209050919050565b60006020601f8301049050919050565b600082821b905092915050565b60006008830261131d7fffffffffffffffffffffffffffffffffffffffffffffffffffffffffffffffff826112e0565b61132786836112e0565b95508019841693508086168417925050509392505050565b6000819050919050565b600061136461135f61135a84610c56565b61133f565b610c56565b9050919050565b6000819050919050565b61137e83611349565b61139261138a8261136b565b8484546112ed565b825550505050565b600090565b6113a761139a565b6113b2818484611375565b505050565b5b818110156113d6576113cb60008261139f565b6001810190506113b8565b5050565b601f82111561141b576113ec816112bb565b6113f5846112d0565b81016020851015611404578190505b611418611410856112d0565b8301826113b7565b50505b505050565b600082821c905092915050565b600061143e60001984600802611420565b1980831691505092915050565b6000611457838361142d565b9150826002028217905092915050565b61147082610e1c565b67ffffffffffffffff8111156114895761148861122c565b5b611493825461128a565b61149e8282856113da565b600060209050601f8311600181146114d157600084156114bf578287015190505b6114c9858261144b565b865550611531565b601f1984166114df866112bb565b60005b82811015611507578489015182556001820191506020850194506020810190506114e2565b868310156115245784890151611520601f89168261142d565b8355505b6001600288020188555050505b505050505050565b7f596f752063616e206f6e6c792061646420757020746f2033206578706572696560008201527f6e63657300000000000000000000000000000000000000000000000000000000602082015250565b6000611595602483611046565b91506115a082611539565b604082019050919050565b600060208201905081810360008301526115c481611588565b9050919050565b7f4e487b7100000000000000000000000000000000000000000000000000000000600052601160045260246000fd5b600061160582610c56565b91507fffffffffffffffffffffffffffffffffffffffffffffffffffffffffffffffff8203611637576116366115cb565b5b60018201905091905056fea26469706673582212209d68bde9d5c60696650558852ff3b18f9dbdda274db355c3694ed060f664408964736f6c634300081c0033",
  "linkReferences": {},
  "deployedLinkReferences": {}
}