{
  "_format": "hh-sol-artifact-1",
  "contractName": "Projects",
  "sourceName": "contracts/Project.sol",
  "abi": [
    {
      "inputs": [
        {
          "internalType": "address",
          "name": "_manager",
          "type": "address"
        }
      ],
      "stateMutability": "nonpayable",
      "type": "constructor"
    },
    {
      "inputs": [],
      "name": "allProjectDetails",
      "outputs": [
        {
          "components": [
            {
              "internalType": "uint256",
              "name": "id",
              "type": "uint256"
            },
            {
              "internalType": "string",
              "name": "date",
              "type": "string"
            },
            {
              "internalType": "string",
              "name": "name",
              "type": "string"
            },
            {
              "internalType": "string",
              "name": "description",
              "type": "string"
            },
            {
              "internalType": "string",
              "name": "githubUrl",
              "type": "string"
            },
            {
              "internalType": "string",
              "name": "image",
              "type": "string"
            }
          ],
          "internalType": "struct Projects.Project[]",
          "name": "",
          "type": "tuple[]"
        }
      ],
      "stateMutability": "view",
      "type": "function"
    },
    {
      "inputs": [
        {
          "internalType": "string",
          "name": "_date",
          "type": "string"
        },
        {
          "internalType": "string",
          "name": "_name",
          "type": "string"
        },
        {
          "internalType": "string",
          "name": "_description",
          "type": "string"
        },
        {
          "internalType": "string",
          "name": "_githubUrl",
          "type": "string"
        },
        {
          "internalType": "string",
          "name": "_image",
          "type": "string"
        }
      ],
      "name": "insertProject",
      "outputs": [],
      "stateMutability": "nonpayable",
      "type": "function"
    },
    {
      "inputs": [],
      "name": "manager",
      "outputs": [
        {
          "internalType": "address",
          "name": "",
          "type": "address"
        }
      ],
      "stateMutability": "view",
      "type": "function"
    },
    {
      "inputs": [],
      "name": "owner",
      "outputs": [
        {
          "internalType": "address",
          "name": "",
          "type": "address"
        }
      ],
      "stateMutability": "view",
      "type": "function"
    },
    {
      "inputs": [],
      "name": "projectCount",
      "outputs": [
        {
          "internalType": "uint256",
          "name": "",
          "type": "uint256"
        }
      ],
      "stateMutability": "view",
      "type": "function"
    },
    {
      "inputs": [
        {
          "internalType": "uint256",
          "name": "",
          "type": "uint256"
        }
      ],
      "name": "projectDetails",
      "outputs": [
        {
          "internalType": "uint256",
          "name": "id",
          "type": "uint256"
        },
        {
          "internalType": "string",
          "name": "date",
          "type": "string"
        },
        {
          "internalType": "string",
          "name": "name",
          "type": "string"
        },
        {
          "internalType": "string",
          "name": "description",
          "type": "string"
        },
        {
          "internalType": "string",
          "name": "githubUrl",
          "type": "string"
        },
        {
          "internalType": "string",
          "name": "image",
          "type": "string"
        }
      ],
      "stateMutability": "view",
      "type": "function"
    },
    {
      "inputs": [
        {
          "internalType": "address",
          "name": "newOwner",
          "type": "address"
        }
      ],
      "name": "transferOwnership",
      "outputs": [],
      "stateMutability": "nonpayable",
      "type": "function"
    },
    {
      "inputs": [
        {
          "internalType": "uint256",
          "name": "_projectId",
          "type": "uint256"
        },
        {
          "internalType": "string",
          "name": "_date",
          "type": "string"
        },
        {
          "internalType": "string",
          "name": "_name",
          "type": "string"
        },
        {
          "internalType": "string",
          "name": "_description",
          "type": "string"
        },
        {
          "internalType": "string",
          "name": "_githubUrl",
          "type": "string"
        },
        {
          "internalType": "string",
          "name": "_image",
          "type": "string"
        }
      ],
      "name": "updateProject",
      "outputs": [],
      "stateMutability": "nonpayable",
      "type": "function"
    }
  ],
  "bytecode": "0x608060405234801561001057600080fd5b5060405161250138038061250183398181016040528101906100329190610483565b806000806101000a81548173ffffffffffffffffffffffffffffffffffffffff021916908373ffffffffffffffffffffffffffffffffffffffff16021790555033600160006101000a81548173ffffffffffffffffffffffffffffffffffffffff021916908373ffffffffffffffffffffffffffffffffffffffff1602179055506101786040518060400160405280600a81526020017f323032332d31302d3236000000000000000000000000000000000000000000008152506040518060400160405280600d81526020017f50726f6a65637420416c706861000000000000000000000000000000000000008152506040518060600160405280602581526020016123e5602591396040518060600160405280602e8152602001612453602e91396040518060600160405280602581526020016124dc6025913961034260201b60201c565b61025a6040518060400160405280600a81526020017f323032332d31312d3135000000000000000000000000000000000000000000008152506040518060400160405280600c81526020017f50726f6a656374204265746100000000000000000000000000000000000000008152506040518060400160405280601b81526020017f44657461696c732061626f75742050726f6a65637420426574612e00000000008152506040518060600160405280602d8152602001612481602d913960405180606001604052806024815260200161240a6024913961034260201b60201c565b61033c6040518060400160405280600a81526020017f323032332d31322d3031000000000000000000000000000000000000000000008152506040518060400160405280600d81526020017f50726f6a6563742047616d6d61000000000000000000000000000000000000008152506040518060400160405280601d81526020017f50726f6a6563742047616d6d6120696e206d6f72652064657461696c2e0000008152506040518060600160405280602e81526020016124ae602e913960405180606001604052806025815260200161242e6025913961034260201b60201c565b50610849565b6040518060c001604052806002548152602001868152602001858152602001848152602001838152602001828152506003600060025481526020019081526020016000206000820151816000015560208201518160010190816103a59190610700565b5060408201518160020190816103bb9190610700565b5060608201518160030190816103d19190610700565b5060808201518160040190816103e79190610700565b5060a08201518160050190816103fd9190610700565b509050506002600081548092919061041490610801565b91905055505050505050565b600080fd5b600073ffffffffffffffffffffffffffffffffffffffff82169050919050565b600061045082610425565b9050919050565b61046081610445565b811461046b57600080fd5b50565b60008151905061047d81610457565b92915050565b60006020828403121561049957610498610420565b5b60006104a78482850161046e565b91505092915050565b600081519050919050565b7f4e487b7100000000000000000000000000000000000000000000000000000000600052604160045260246000fd5b7f4e487b7100000000000000000000000000000000000000000000000000000000600052602260045260246000fd5b6000600282049050600182168061053157607f821691505b602082108103610544576105436104ea565b5b50919050565b60008190508160005260206000209050919050565b60006020601f8301049050919050565b600082821b905092915050565b6000600883026105ac7fffffffffffffffffffffffffffffffffffffffffffffffffffffffffffffffff8261056f565b6105b6868361056f565b95508019841693508086168417925050509392505050565b6000819050919050565b6000819050919050565b60006105fd6105f86105f3846105ce565b6105d8565b6105ce565b9050919050565b6000819050919050565b610617836105e2565b61062b61062382610604565b84845461057c565b825550505050565b600090565b610640610633565b61064b81848461060e565b505050565b5b8181101561066f57610664600082610638565b600181019050610651565b5050565b601f8211156106b4576106858161054a565b61068e8461055f565b8101602085101561069d578190505b6106b16106a98561055f565b830182610650565b50505b505050565b600082821c905092915050565b60006106d7600019846008026106b9565b1980831691505092915050565b60006106f083836106c6565b9150826002028217905092915050565b610709826104b0565b67ffffffffffffffff811115610722576107216104bb565b5b61072c8254610519565b610737828285610673565b600060209050601f83116001811461076a5760008415610758578287015190505b61076285826106e4565b8655506107ca565b601f1984166107788661054a565b60005b828110156107a05784890151825560018201915060208501945060208101905061077b565b868310156107bd57848901516107b9601f8916826106c6565b8355505b6001600288020188555050505b505050505050565b7f4e487b7100000000000000000000000000000000000000000000000000000000600052601160045260246000fd5b600061080c826105ce565b91507fffffffffffffffffffffffffffffffffffffffffffffffffffffffffffffffff820361083e5761083d6107d2565b5b600182019050919050565b611b8d806108586000396000f3fe608060405234801561001057600080fd5b50600436106100885760003560e01c80638dd91a561161005b5780638dd91a5614610103578063ac0bae2a14610138578063d107ba5414610154578063f2fde38b1461017257610088565b806336fbad261461008d578063481c6a75146100ab5780634f71a01d146100c95780638da5cb5b146100e5575b600080fd5b61009561018e565b6040516100a29190610f5e565b60405180910390f35b6100b3610194565b6040516100c09190610fba565b60405180910390f35b6100e360048036038101906100de9190611044565b6101b8565b005b6100ed6103b3565b6040516100fa9190610fba565b60405180910390f35b61011d6004803603810190610118919061118d565b6103d9565b60405161012f9695949392919061124a565b60405180910390f35b610152600480360381019061014d91906112ce565b6106bd565b005b61015c6109bf565b60405161016991906115bf565b60405180910390f35b61018c6004803603810190610187919061160d565b610d5d565b005b60025481565b60008054906101000a900473ffffffffffffffffffffffffffffffffffffffff1681565b60008054906101000a900473ffffffffffffffffffffffffffffffffffffffff1673ffffffffffffffffffffffffffffffffffffffff163373ffffffffffffffffffffffffffffffffffffffff1614610246576040517f08c379a000000000000000000000000000000000000000000000000000000000815260040161023d906116ac565b60405180910390fd5b6103a78a8a8080601f016020809104026020016040519081016040528093929190818152602001838380828437600081840152601f19601f8201169050808301925050505050505089898080601f016020809104026020016040519081016040528093929190818152602001838380828437600081840152601f19601f8201169050808301925050505050505088888080601f016020809104026020016040519081016040528093929190818152602001838380828437600081840152601f19601f8201169050808301925050505050505087878080601f016020809104026020016040519081016040528093929190818152602001838380828437600081840152601f19601f8201169050808301925050505050505086868080601f016020809104026020016040519081016040528093929190818152602001838380828437600081840152601f19601f82011690508083019250505050505050610e31565b50505050505050505050565b600160009054906101000a900473ffffffffffffffffffffffffffffffffffffffff1681565b6003602052806000526040600020600091509050806000015490806001018054610402906116fb565b80601f016020809104026020016040519081016040528092919081815260200182805461042e906116fb565b801561047b5780601f106104505761010080835404028352916020019161047b565b820191906000526020600020905b81548152906001019060200180831161045e57829003601f168201915b505050505090806002018054610490906116fb565b80601f01602080910402602001604051908101604052809291908181526020018280546104bc906116fb565b80156105095780601f106104de57610100808354040283529160200191610509565b820191906000526020600020905b8154815290600101906020018083116104ec57829003601f168201915b50505050509080600301805461051e906116fb565b80601f016020809104026020016040519081016040528092919081815260200182805461054a906116fb565b80156105975780601f1061056c57610100808354040283529160200191610597565b820191906000526020600020905b81548152906001019060200180831161057a57829003601f168201915b5050505050908060040180546105ac906116fb565b80601f01602080910402602001604051908101604052809291908181526020018280546105d8906116fb565b80156106255780601f106105fa57610100808354040283529160200191610625565b820191906000526020600020905b81548152906001019060200180831161060857829003601f168201915b50505050509080600501805461063a906116fb565b80601f0160208091040260200160405190810160405280929190818152602001828054610666906116fb565b80156106b35780601f10610688576101008083540402835291602001916106b3565b820191906000526020600020905b81548152906001019060200180831161069657829003601f168201915b5050505050905086565b60008054906101000a900473ffffffffffffffffffffffffffffffffffffffff1673ffffffffffffffffffffffffffffffffffffffff163373ffffffffffffffffffffffffffffffffffffffff161461074b576040517f08c379a0000000000000000000000000000000000000000000000000000000008152600401610742906116ac565b60405180910390fd5b8a600360008d815260200190815260200160002060000154146107a3576040517f08c379a000000000000000000000000000000000000000000000000000000000815260040161079a90611778565b60405180910390fd5b6040518060c001604052808c81526020018b8b8080601f016020809104026020016040519081016040528093929190818152602001838380828437600081840152601f19601f82011690508083019250505050505050815260200189898080601f016020809104026020016040519081016040528093929190818152602001838380828437600081840152601f19601f82011690508083019250505050505050815260200187878080601f016020809104026020016040519081016040528093929190818152602001838380828437600081840152601f19601f82011690508083019250505050505050815260200185858080601f016020809104026020016040519081016040528093929190818152602001838380828437600081840152601f19601f82011690508083019250505050505050815260200183838080601f016020809104026020016040519081016040528093929190818152602001838380828437600081840152601f19601f82011690508083019250505050505050815250600360008d81526020019081526020016000206000820151816000015560208201518160010190816109569190611973565b50604082015181600201908161096c9190611973565b5060608201518160030190816109829190611973565b5060808201518160040190816109989190611973565b5060a08201518160050190816109ae9190611973565b509050505050505050505050505050565b6060600060025467ffffffffffffffff8111156109df576109de611798565b5b604051908082528060200260200182016040528015610a1857816020015b610a05610f0f565b8152602001906001900390816109fd5790505b50905060005b600254811015610d5557600360008281526020019081526020016000206040518060c001604052908160008201548152602001600182018054610a60906116fb565b80601f0160208091040260200160405190810160405280929190818152602001828054610a8c906116fb565b8015610ad95780601f10610aae57610100808354040283529160200191610ad9565b820191906000526020600020905b815481529060010190602001808311610abc57829003601f168201915b50505050508152602001600282018054610af2906116fb565b80601f0160208091040260200160405190810160405280929190818152602001828054610b1e906116fb565b8015610b6b5780601f10610b4057610100808354040283529160200191610b6b565b820191906000526020600020905b815481529060010190602001808311610b4e57829003601f168201915b50505050508152602001600382018054610b84906116fb565b80601f0160208091040260200160405190810160405280929190818152602001828054610bb0906116fb565b8015610bfd5780601f10610bd257610100808354040283529160200191610bfd565b820191906000526020600020905b815481529060010190602001808311610be057829003601f168201915b50505050508152602001600482018054610c16906116fb565b80601f0160208091040260200160405190810160405280929190818152602001828054610c42906116fb565b8015610c8f5780601f10610c6457610100808354040283529160200191610c8f565b820191906000526020600020905b815481529060010190602001808311610c7257829003601f168201915b50505050508152602001600582018054610ca8906116fb565b80601f0160208091040260200160405190810160405280929190818152602001828054610cd4906116fb565b8015610d215780601f10610cf657610100808354040283529160200191610d21565b820191906000526020600020905b815481529060010190602001808311610d0457829003601f168201915b505050505081525050828281518110610d3d57610d3c611a45565b5b60200260200101819052508080600101915050610a1e565b508091505090565b600160009054906101000a900473ffffffffffffffffffffffffffffffffffffffff1673ffffffffffffffffffffffffffffffffffffffff163373ffffffffffffffffffffffffffffffffffffffff1614610ded576040517f08c379a0000000000000000000000000000000000000000000000000000000008152600401610de490611ac0565b60405180910390fd5b80600160006101000a81548173ffffffffffffffffffffffffffffffffffffffff021916908373ffffffffffffffffffffffffffffffffffffffff16021790555050565b6040518060c00160405280600254815260200186815260200185815260200184815260200183815260200182815250600360006002548152602001908152602001600020600082015181600001556020820151816001019081610e949190611973565b506040820151816002019081610eaa9190611973565b506060820151816003019081610ec09190611973565b506080820151816004019081610ed69190611973565b5060a0820151816005019081610eec9190611973565b5090505060026000815480929190610f0390611b0f565b91905055505050505050565b6040518060c001604052806000815260200160608152602001606081526020016060815260200160608152602001606081525090565b6000819050919050565b610f5881610f45565b82525050565b6000602082019050610f736000830184610f4f565b92915050565b600073ffffffffffffffffffffffffffffffffffffffff82169050919050565b6000610fa482610f79565b9050919050565b610fb481610f99565b82525050565b6000602082019050610fcf6000830184610fab565b92915050565b600080fd5b600080fd5b600080fd5b600080fd5b600080fd5b60008083601f84011261100457611003610fdf565b5b8235905067ffffffffffffffff81111561102157611020610fe4565b5b60208301915083600182028301111561103d5761103c610fe9565b5b9250929050565b60008060008060008060008060008060a08b8d03121561106757611066610fd5565b5b60008b013567ffffffffffffffff81111561108557611084610fda565b5b6110918d828e01610fee565b9a509a505060208b013567ffffffffffffffff8111156110b4576110b3610fda565b5b6110c08d828e01610fee565b985098505060408b013567ffffffffffffffff8111156110e3576110e2610fda565b5b6110ef8d828e01610fee565b965096505060608b013567ffffffffffffffff81111561111257611111610fda565b5b61111e8d828e01610fee565b945094505060808b013567ffffffffffffffff81111561114157611140610fda565b5b61114d8d828e01610fee565b92509250509295989b9194979a5092959850565b61116a81610f45565b811461117557600080fd5b50565b60008135905061118781611161565b92915050565b6000602082840312156111a3576111a2610fd5565b5b60006111b184828501611178565b91505092915050565b600081519050919050565b600082825260208201905092915050565b60005b838110156111f45780820151818401526020810190506111d9565b60008484015250505050565b6000601f19601f8301169050919050565b600061121c826111ba565b61122681856111c5565b93506112368185602086016111d6565b61123f81611200565b840191505092915050565b600060c08201905061125f6000830189610f4f565b81810360208301526112718188611211565b905081810360408301526112858187611211565b905081810360608301526112998186611211565b905081810360808301526112ad8185611211565b905081810360a08301526112c18184611211565b9050979650505050505050565b600080600080600080600080600080600060c08c8e0312156112f3576112f2610fd5565b5b60006113018e828f01611178565b9b505060208c013567ffffffffffffffff81111561132257611321610fda565b5b61132e8e828f01610fee565b9a509a505060408c013567ffffffffffffffff81111561135157611350610fda565b5b61135d8e828f01610fee565b985098505060608c013567ffffffffffffffff8111156113805761137f610fda565b5b61138c8e828f01610fee565b965096505060808c013567ffffffffffffffff8111156113af576113ae610fda565b5b6113bb8e828f01610fee565b945094505060a08c013567ffffffffffffffff8111156113de576113dd610fda565b5b6113ea8e828f01610fee565b92509250509295989b509295989b9093969950565b600081519050919050565b600082825260208201905092915050565b6000819050602082019050919050565b61143481610f45565b82525050565b600082825260208201905092915050565b6000611456826111ba565b611460818561143a565b93506114708185602086016111d6565b61147981611200565b840191505092915050565b600060c08301600083015161149c600086018261142b565b50602083015184820360208601526114b4828261144b565b915050604083015184820360408601526114ce828261144b565b915050606083015184820360608601526114e8828261144b565b91505060808301518482036080860152611502828261144b565b91505060a083015184820360a086015261151c828261144b565b9150508091505092915050565b60006115358383611484565b905092915050565b6000602082019050919050565b6000611555826113ff565b61155f818561140a565b9350836020820285016115718561141b565b8060005b858110156115ad578484038952815161158e8582611529565b94506115998361153d565b925060208a01995050600181019050611575565b50829750879550505050505092915050565b600060208201905081810360008301526115d9818461154a565b905092915050565b6115ea81610f99565b81146115f557600080fd5b50565b600081359050611607816115e1565b92915050565b60006020828403121561162357611622610fd5565b5b6000611631848285016115f8565b91505092915050565b7f596f7520617265206e6f7420746865206d616e61676572206f6620746869732060008201527f706f7274666f6c696f0000000000000000000000000000000000000000000000602082015250565b60006116966029836111c5565b91506116a18261163a565b604082019050919050565b600060208201905081810360008301526116c581611689565b9050919050565b7f4e487b7100000000000000000000000000000000000000000000000000000000600052602260045260246000fd5b6000600282049050600182168061171357607f821691505b602082108103611726576117256116cc565b5b50919050565b7f496e76616c69642070726f6a6563742049440000000000000000000000000000600082015250565b60006117626012836111c5565b915061176d8261172c565b602082019050919050565b6000602082019050818103600083015261179181611755565b9050919050565b7f4e487b7100000000000000000000000000000000000000000000000000000000600052604160045260246000fd5b60008190508160005260206000209050919050565b60006020601f8301049050919050565b600082821b905092915050565b6000600883026118297fffffffffffffffffffffffffffffffffffffffffffffffffffffffffffffffff826117ec565b61183386836117ec565b95508019841693508086168417925050509392505050565b6000819050919050565b600061187061186b61186684610f45565b61184b565b610f45565b9050919050565b6000819050919050565b61188a83611855565b61189e61189682611877565b8484546117f9565b825550505050565b600090565b6118b36118a6565b6118be818484611881565b505050565b5b818110156118e2576118d76000826118ab565b6001810190506118c4565b5050565b601f821115611927576118f8816117c7565b611901846117dc565b81016020851015611910578190505b61192461191c856117dc565b8301826118c3565b50505b505050565b600082821c905092915050565b600061194a6000198460080261192c565b1980831691505092915050565b60006119638383611939565b9150826002028217905092915050565b61197c826111ba565b67ffffffffffffffff81111561199557611994611798565b5b61199f82546116fb565b6119aa8282856118e6565b600060209050601f8311600181146119dd57600084156119cb578287015190505b6119d58582611957565b865550611a3d565b601f1984166119eb866117c7565b60005b82811015611a13578489015182556001820191506020850194506020810190506119ee565b86831015611a305784890151611a2c601f891682611939565b8355505b6001600288020188555050505b505050505050565b7f4e487b7100000000000000000000000000000000000000000000000000000000600052603260045260246000fd5b7f596f7520617265206e6f7420746865206f776e65720000000000000000000000600082015250565b6000611aaa6015836111c5565b9150611ab582611a74565b602082019050919050565b60006020820190508181036000830152611ad981611a9d565b9050919050565b7f4e487b7100000000000000000000000000000000000000000000000000000000600052601160045260246000fd5b6000611b1a82610f45565b91507fffffffffffffffffffffffffffffffffffffffffffffffffffffffffffffffff8203611b4c57611b4b611ae0565b5b60018201905091905056fea2646970667358221220ae2a6161b61582a21c5bf1a313870120ca02803bbf77826a3a952d7ea683c98964736f6c634300081c003341206272696566206465736372697074696f6e206f662050726f6a65637420416c7068612e68747470733a2f2f6578616d706c652e636f6d2f70726f6a6563742d626574612e706e6768747470733a2f2f6578616d706c652e636f6d2f70726f6a6563742d67616d6d612e67696668747470733a2f2f6769746875622e636f6d2f796f75722d757365726e616d652f70726f6a6563742d616c70686168747470733a2f2f6769746875622e636f6d2f796f75722d757365726e616d652f70726f6a6563742d6265746168747470733a2f2f6769746875622e636f6d2f796f75722d757365726e616d652f70726f6a6563742d67616d6d6168747470733a2f2f6578616d706c652e636f6d2f70726f6a6563742d616c7068612e6a7067",
  "linkReferences": {},
  "deployedLinkReferences": {}
}