{
  "_format": "hh-sol-artifact-1",
  "contractName": "Projects",
  "sourceName": "contracts/Project.sol",
  "abi": [
    {
      "inputs": [
        {
          "internalType": "address",
          "name": "_manager",
          "type": "address"
        }
      ],
      "stateMutability": "nonpayable",
      "type": "constructor"
    },
    {
      "inputs": [],
      "name": "allProjectDetails",
      "outputs": [
        {
          "components": [
            {
              "internalType": "string",
              "name": "date",
              "type": "string"
            },
            {
              "internalType": "string",
              "name": "name",
              "type": "string"
            },
            {
              "internalType": "string",
              "name": "description",
              "type": "string"
            },
            {
              "internalType": "string",
              "name": "githubUrl",
              "type": "string"
            },
            {
              "internalType": "string",
              "name": "image",
              "type": "string"
            }
          ],
          "internalType": "struct Projects.Project[3]",
          "name": "",
          "type": "tuple[3]"
        }
      ],
      "stateMutability": "view",
      "type": "function"
    },
    {
      "inputs": [
        {
          "internalType": "string",
          "name": "_date",
          "type": "string"
        },
        {
          "internalType": "string",
          "name": "_name",
          "type": "string"
        },
        {
          "internalType": "string",
          "name": "_description",
          "type": "string"
        },
        {
          "internalType": "string",
          "name": "_githubUrl",
          "type": "string"
        },
        {
          "internalType": "string",
          "name": "_image",
          "type": "string"
        }
      ],
      "name": "insertProject",
      "outputs": [],
      "stateMutability": "nonpayable",
      "type": "function"
    },
    {
      "inputs": [],
      "name": "manager",
      "outputs": [
        {
          "internalType": "address",
          "name": "",
          "type": "address"
        }
      ],
      "stateMutability": "view",
      "type": "function"
    },
    {
      "inputs": [],
      "name": "projectCount",
      "outputs": [
        {
          "internalType": "uint256",
          "name": "",
          "type": "uint256"
        }
      ],
      "stateMutability": "view",
      "type": "function"
    },
    {
      "inputs": [
        {
          "internalType": "uint256",
          "name": "",
          "type": "uint256"
        }
      ],
      "name": "projectDetails",
      "outputs": [
        {
          "internalType": "string",
          "name": "date",
          "type": "string"
        },
        {
          "internalType": "string",
          "name": "name",
          "type": "string"
        },
        {
          "internalType": "string",
          "name": "description",
          "type": "string"
        },
        {
          "internalType": "string",
          "name": "githubUrl",
          "type": "string"
        },
        {
          "internalType": "string",
          "name": "image",
          "type": "string"
        }
      ],
      "stateMutability": "view",
      "type": "function"
    },
    {
      "inputs": [
        {
          "internalType": "uint256",
          "name": "_projectId",
          "type": "uint256"
        },
        {
          "internalType": "string",
          "name": "_date",
          "type": "string"
        },
        {
          "internalType": "string",
          "name": "_name",
          "type": "string"
        },
        {
          "internalType": "string",
          "name": "_description",
          "type": "string"
        },
        {
          "internalType": "string",
          "name": "_githubUrl",
          "type": "string"
        },
        {
          "internalType": "string",
          "name": "_image",
          "type": "string"
        }
      ],
      "name": "updateProject",
      "outputs": [],
      "stateMutability": "nonpayable",
      "type": "function"
    }
  ],
  "bytecode": "0x608060405234801561001057600080fd5b50604051611a7a380380611a7a833981810160405281019061003291906100db565b806000806101000a81548173ffffffffffffffffffffffffffffffffffffffff021916908373ffffffffffffffffffffffffffffffffffffffff16021790555050610108565b600080fd5b600073ffffffffffffffffffffffffffffffffffffffff82169050919050565b60006100a88261007d565b9050919050565b6100b88161009d565b81146100c357600080fd5b50565b6000815190506100d5816100af565b92915050565b6000602082840312156100f1576100f0610078565b5b60006100ff848285016100c6565b91505092915050565b611963806101176000396000f3fe608060405234801561001057600080fd5b50600436106100625760003560e01c806336fbad2614610067578063481c6a75146100855780634f71a01d146100a35780638dd91a56146100bf578063ac0bae2a146100f3578063d107ba541461010f575b600080fd5b61006f61012d565b60405161007c9190610dc9565b60405180910390f35b61008d610133565b60405161009a9190610e25565b60405180910390f35b6100bd60048036038101906100b89190610eaf565b610157565b005b6100d960048036038101906100d49190610ff8565b610454565b6040516100ea9594939291906110b5565b60405180910390f35b61010d6004803603810190610108919061112b565b610738565b005b610117610a28565b60405161012491906113ee565b60405180910390f35b60015481565b60008054906101000a900473ffffffffffffffffffffffffffffffffffffffff1681565b60008054906101000a900473ffffffffffffffffffffffffffffffffffffffff1673ffffffffffffffffffffffffffffffffffffffff163373ffffffffffffffffffffffffffffffffffffffff16146101e5576040517f08c379a00000000000000000000000000000000000000000000000000000000081526004016101dc90611482565b60405180910390fd5b60036001541061022a576040517f08c379a0000000000000000000000000000000000000000000000000000000008152600401610221906114ee565b60405180910390fd5b6040518060a001604052808b8b8080601f016020809104026020016040519081016040528093929190818152602001838380828437600081840152601f19601f82011690508083019250505050505050815260200189898080601f016020809104026020016040519081016040528093929190818152602001838380828437600081840152601f19601f82011690508083019250505050505050815260200187878080601f016020809104026020016040519081016040528093929190818152602001838380828437600081840152601f19601f82011690508083019250505050505050815260200185858080601f016020809104026020016040519081016040528093929190818152602001838380828437600081840152601f19601f82011690508083019250505050505050815260200183838080601f016020809104026020016040519081016040528093929190818152602001838380828437600081840152601f19601f820116905080830192505050505050508152506002600154600381106103bb576103ba61150e565b5b6005020160008201518160000190816103d49190611778565b5060208201518160010190816103ea9190611778565b5060408201518160020190816104009190611778565b5060608201518160030190816104169190611778565b50608082015181600401908161042c9190611778565b509050506001600081548092919061044390611879565b919050555050505050505050505050565b6002816003811061046457600080fd5b6005020160009150905080600001805461047d9061159b565b80601f01602080910402602001604051908101604052809291908181526020018280546104a99061159b565b80156104f65780601f106104cb576101008083540402835291602001916104f6565b820191906000526020600020905b8154815290600101906020018083116104d957829003601f168201915b50505050509080600101805461050b9061159b565b80601f01602080910402602001604051908101604052809291908181526020018280546105379061159b565b80156105845780601f1061055957610100808354040283529160200191610584565b820191906000526020600020905b81548152906001019060200180831161056757829003601f168201915b5050505050908060020180546105999061159b565b80601f01602080910402602001604051908101604052809291908181526020018280546105c59061159b565b80156106125780601f106105e757610100808354040283529160200191610612565b820191906000526020600020905b8154815290600101906020018083116105f557829003601f168201915b5050505050908060030180546106279061159b565b80601f01602080910402602001604051908101604052809291908181526020018280546106539061159b565b80156106a05780601f10610675576101008083540402835291602001916106a0565b820191906000526020600020905b81548152906001019060200180831161068357829003601f168201915b5050505050908060040180546106b59061159b565b80601f01602080910402602001604051908101604052809291908181526020018280546106e19061159b565b801561072e5780601f106107035761010080835404028352916020019161072e565b820191906000526020600020905b81548152906001019060200180831161071157829003601f168201915b5050505050905085565b60008054906101000a900473ffffffffffffffffffffffffffffffffffffffff1673ffffffffffffffffffffffffffffffffffffffff163373ffffffffffffffffffffffffffffffffffffffff16146107c6576040517f08c379a00000000000000000000000000000000000000000000000000000000081526004016107bd90611482565b60405180910390fd5b60008b101580156107d857506001548b105b610817576040517f08c379a000000000000000000000000000000000000000000000000000000000815260040161080e9061190d565b60405180910390fd5b6040518060a001604052808b8b8080601f016020809104026020016040519081016040528093929190818152602001838380828437600081840152601f19601f82011690508083019250505050505050815260200189898080601f016020809104026020016040519081016040528093929190818152602001838380828437600081840152601f19601f82011690508083019250505050505050815260200187878080601f016020809104026020016040519081016040528093929190818152602001838380828437600081840152601f19601f82011690508083019250505050505050815260200185858080601f016020809104026020016040519081016040528093929190818152602001838380828437600081840152601f19601f82011690508083019250505050505050815260200183838080601f016020809104026020016040519081016040528093929190818152602001838380828437600081840152601f19601f8201169050808301925050505050505081525060028c600381106109a6576109a561150e565b5b6005020160008201518160000190816109bf9190611778565b5060208201518160010190816109d59190611778565b5060408201518160020190816109eb9190611778565b506060820151816003019081610a019190611778565b506080820151816004019081610a179190611778565b509050505050505050505050505050565b610a30610d54565b6002600380602002604051908101604052809291906000905b82821015610d4b578382600502016040518060a0016040529081600082018054610a729061159b565b80601f0160208091040260200160405190810160405280929190818152602001828054610a9e9061159b565b8015610aeb5780601f10610ac057610100808354040283529160200191610aeb565b820191906000526020600020905b815481529060010190602001808311610ace57829003601f168201915b50505050508152602001600182018054610b049061159b565b80601f0160208091040260200160405190810160405280929190818152602001828054610b309061159b565b8015610b7d5780601f10610b5257610100808354040283529160200191610b7d565b820191906000526020600020905b815481529060010190602001808311610b6057829003601f168201915b50505050508152602001600282018054610b969061159b565b80601f0160208091040260200160405190810160405280929190818152602001828054610bc29061159b565b8015610c0f5780601f10610be457610100808354040283529160200191610c0f565b820191906000526020600020905b815481529060010190602001808311610bf257829003601f168201915b50505050508152602001600382018054610c289061159b565b80601f0160208091040260200160405190810160405280929190818152602001828054610c549061159b565b8015610ca15780601f10610c7657610100808354040283529160200191610ca1565b820191906000526020600020905b815481529060010190602001808311610c8457829003601f168201915b50505050508152602001600482018054610cba9061159b565b80601f0160208091040260200160405190810160405280929190818152602001828054610ce69061159b565b8015610d335780601f10610d0857610100808354040283529160200191610d33565b820191906000526020600020905b815481529060010190602001808311610d1657829003601f168201915b50505050508152505081526020019060010190610a49565b50505050905090565b60405180606001604052806003905b610d6b610d81565b815260200190600190039081610d635790505090565b6040518060a0016040528060608152602001606081526020016060815260200160608152602001606081525090565b6000819050919050565b610dc381610db0565b82525050565b6000602082019050610dde6000830184610dba565b92915050565b600073ffffffffffffffffffffffffffffffffffffffff82169050919050565b6000610e0f82610de4565b9050919050565b610e1f81610e04565b82525050565b6000602082019050610e3a6000830184610e16565b92915050565b600080fd5b600080fd5b600080fd5b600080fd5b600080fd5b60008083601f840112610e6f57610e6e610e4a565b5b8235905067ffffffffffffffff811115610e8c57610e8b610e4f565b5b602083019150836001820283011115610ea857610ea7610e54565b5b9250929050565b60008060008060008060008060008060a08b8d031215610ed257610ed1610e40565b5b60008b013567ffffffffffffffff811115610ef057610eef610e45565b5b610efc8d828e01610e59565b9a509a505060208b013567ffffffffffffffff811115610f1f57610f1e610e45565b5b610f2b8d828e01610e59565b985098505060408b013567ffffffffffffffff811115610f4e57610f4d610e45565b5b610f5a8d828e01610e59565b965096505060608b013567ffffffffffffffff811115610f7d57610f7c610e45565b5b610f898d828e01610e59565b945094505060808b013567ffffffffffffffff811115610fac57610fab610e45565b5b610fb88d828e01610e59565b92509250509295989b9194979a5092959850565b610fd581610db0565b8114610fe057600080fd5b50565b600081359050610ff281610fcc565b92915050565b60006020828403121561100e5761100d610e40565b5b600061101c84828501610fe3565b91505092915050565b600081519050919050565b600082825260208201905092915050565b60005b8381101561105f578082015181840152602081019050611044565b60008484015250505050565b6000601f19601f8301169050919050565b600061108782611025565b6110918185611030565b93506110a1818560208601611041565b6110aa8161106b565b840191505092915050565b600060a08201905081810360008301526110cf818861107c565b905081810360208301526110e3818761107c565b905081810360408301526110f7818661107c565b9050818103606083015261110b818561107c565b9050818103608083015261111f818461107c565b90509695505050505050565b600080600080600080600080600080600060c08c8e0312156111505761114f610e40565b5b600061115e8e828f01610fe3565b9b505060208c013567ffffffffffffffff81111561117f5761117e610e45565b5b61118b8e828f01610e59565b9a509a505060408c013567ffffffffffffffff8111156111ae576111ad610e45565b5b6111ba8e828f01610e59565b985098505060608c013567ffffffffffffffff8111156111dd576111dc610e45565b5b6111e98e828f01610e59565b965096505060808c013567ffffffffffffffff81111561120c5761120b610e45565b5b6112188e828f01610e59565b945094505060a08c013567ffffffffffffffff81111561123b5761123a610e45565b5b6112478e828f01610e59565b92509250509295989b509295989b9093969950565b600060039050919050565b600081905092915050565b6000819050919050565b600082825260208201905092915050565b600061129882611025565b6112a2818561127c565b93506112b2818560208601611041565b6112bb8161106b565b840191505092915050565b600060a08301600083015184820360008601526112e3828261128d565b915050602083015184820360208601526112fd828261128d565b91505060408301518482036040860152611317828261128d565b91505060608301518482036060860152611331828261128d565b9150506080830151848203608086015261134b828261128d565b9150508091505092915050565b600061136483836112c6565b905092915050565b6000602082019050919050565b60006113848261125c565b61138e8185611267565b9350836020820285016113a085611272565b8060005b858110156113dc57848403895281516113bd8582611358565b94506113c88361136c565b925060208a019950506001810190506113a4565b50829750879550505050505092915050565b600060208201905081810360008301526114088184611379565b905092915050565b7f596f7520617265206e6f7420746865206f776e6572206f66207468697320706f60008201527f7274666f6c696f00000000000000000000000000000000000000000000000000602082015250565b600061146c602783611030565b915061147782611410565b604082019050919050565b6000602082019050818103600083015261149b8161145f565b9050919050565b7f596f752063616e206f6e6c792061646420332070726f6a656374730000000000600082015250565b60006114d8601b83611030565b91506114e3826114a2565b602082019050919050565b60006020820190508181036000830152611507816114cb565b9050919050565b7f4e487b7100000000000000000000000000000000000000000000000000000000600052603260045260246000fd5b7f4e487b7100000000000000000000000000000000000000000000000000000000600052604160045260246000fd5b7f4e487b7100000000000000000000000000000000000000000000000000000000600052602260045260246000fd5b600060028204905060018216806115b357607f821691505b6020821081036115c6576115c561156c565b5b50919050565b60008190508160005260206000209050919050565b60006020601f8301049050919050565b600082821b905092915050565b60006008830261162e7fffffffffffffffffffffffffffffffffffffffffffffffffffffffffffffffff826115f1565b61163886836115f1565b95508019841693508086168417925050509392505050565b6000819050919050565b600061167561167061166b84610db0565b611650565b610db0565b9050919050565b6000819050919050565b61168f8361165a565b6116a361169b8261167c565b8484546115fe565b825550505050565b600090565b6116b86116ab565b6116c3818484611686565b505050565b5b818110156116e7576116dc6000826116b0565b6001810190506116c9565b5050565b601f82111561172c576116fd816115cc565b611706846115e1565b81016020851015611715578190505b611729611721856115e1565b8301826116c8565b50505b505050565b600082821c905092915050565b600061174f60001984600802611731565b1980831691505092915050565b6000611768838361173e565b9150826002028217905092915050565b61178182611025565b67ffffffffffffffff81111561179a5761179961153d565b5b6117a4825461159b565b6117af8282856116eb565b600060209050601f8311600181146117e257600084156117d0578287015190505b6117da858261175c565b865550611842565b601f1984166117f0866115cc565b60005b82811015611818578489015182556001820191506020850194506020810190506117f3565b868310156118355784890151611831601f89168261173e565b8355505b6001600288020188555050505b505050505050565b7f4e487b7100000000000000000000000000000000000000000000000000000000600052601160045260246000fd5b600061188482610db0565b91507fffffffffffffffffffffffffffffffffffffffffffffffffffffffffffffffff82036118b6576118b561184a565b5b600182019050919050565b7f496e76616c69642070726f6a6563742049440000000000000000000000000000600082015250565b60006118f7601283611030565b9150611902826118c1565b602082019050919050565b60006020820190508181036000830152611926816118ea565b905091905056fea2646970667358221220b9ba0f49e21de54ed9ddd8701f798874d1d3f80187e1a312c38fc2fea3d429a064736f6c634300081c0033",
  "linkReferences": {},
  "deployedLinkReferences": {}
}